:020000040800F2
:1000000000400420253A0008490900084B0900086F
:100010004D0900084F09000851090008753A000809
:10002000000000000000000000000000530900086C
:100030005509000800000000570900085909000888
:10004000753A0008753A0008753A0008753A0008D4
:10005000753A0008753A0008753A0008753A0008C4
:10006000753A0008753A0008753A0008753A0008B4
:10007000753A0008753A0008753A0008753A0008A4
:10008000753A0008753A0008753A0008753A000894
:10009000753A0008753A0008753A0008753A000884
:1000A000753A0008753A0008753A0008753A000874
:1000B000753A0008753A0008753A0008753A000864
:1000C000753A0008753A0008753A0008753A000854
:1000D000753A0008753A0008753A0008753A000844
:1000E000753A0008753A0008753A0008753A000834
:1000F000753A0008753A0008753A0008753A000824
:10010000753A0008753A0008753A0008753A000813
:10011000753A0008753A0008753A0008753A000803
:10012000753A0008753A0008753A0008753A0008F3
:10013000753A0008753A0008753A0008753A0008E3
:10014000753A0008753A0008753A0008753A0008D3
:10015000753A0008753A0008753A0008753A0008C3
:100160000000000000000000753A0008753A000821
:10017000753A0008753A0008753A0008753A0008A3
:10018000753A0008753A0008753A0008000000004A
:1001900000000000753A00080000000000000000A8
:1001A0000000000000000000753A0008753A0008E1
:1001B000753A0008753A0008753A0008753A000863
:1001C000753A0008753A00080000000000000000C1
:1001D000000000000000000000000000753A000868
:1001E000753A0008753A00080000000000000000A1
:1001F000753A0008753A0008753A000800000000DA
:1002000000000000753A0008753A0008753A0008C9
:10021000753A0008753A0008753A0008753A000802
:10022000753A00080000000000000000753A000860
:10023000753A000800000000000000000000000007
:10024000000000000000000000000000753A0008F7
:04025000753A0008F3
:100254000348044B834202D0034B03B11847704751
:100264000C0000200C00002000000000064B074991
:10027400C91A891048BF0131491003D0044B0BB18E
:1002840001481847704700BF0C0000200C000020F4
:100294000000000010B5064C237843B9FFF7D8FFDF
:1002A400044B13B10448AFF300800123237010BD45
:1002B4000C00002000000000783A000808B5044B48
:1002C4001BB104490448AFF30080BDE80840CDE702
:1002D4000000000010000020783A000870B50D4EB0
:1002E4000D4D761BB61006D00024013455F8043B9E
:1002F4009847A642F9D1094E03F0BCFB084D761B82
:10030400B61006D00024013455F8043B9847A642A1
:10031400F9D170BDA03A0008A03A0008A43A000838
:10032400A03A000870B5860748D0541E002A3FD072
:10033400CAB2034601E0013C3AD303F8012B9D07FE
:10034400F9D1032C2DD9CDB20F2C45EA052545EA68
:10035400054536D9A4F1100C03F1200E03F1100267
:100364002CF00F064FEA1C1CB64442E9045542E93E
:10037400025510327245F8D10CF1010214F00C0F41
:1003840004F00F0C03EB021213D0ACF1040323F0BE
:1003940003030433134442F8045B9342FBD10CF08F
:1003A40003042CB1CAB21C4403F8012B9C42FBD1B8
:1003B40070BD64461346002CF4D1F9E70346144695
:1003C400BFE71A46A446E0E72DE9F0418AB00024CD
:1003D40005940694079408940994414BD3F88C200F
:1003E40042F00402C3F88C20D3F88C2002F00402FB
:1003F4000192019AD3F88C2042F08002C3F88C2039
:10040400D3F88C2002F080020292029AD3F88C2056
:1004140042F00102C3F88C20D3F88C2002F00102D0
:100424000392039AD3F88C2042F00202C3F88C2082
:10043400D3F88C3003F002030493049B294D01226A
:100444004FF48041284602F0A5FCDFF8A480224640
:100454004FF4C061404602F09DFC4FF400530593F5
:1004640006940226079605A91F4802F0E7FB0596A5
:100474000694079605A91D4802F0E0FB4FF480435B
:100484000593012706970794089405A9284602F0C6
:10049400D5FB4FF4807305930694079405A9404651
:1004A40002F0CCFB4FF4C0630593069707940894BD
:1004B40005A9404602F0C2FB402305930694079722
:1004C40005A9284602F0BAFB4FF4C07305930694BD
:1004D400079605A9284602F0B1FB0AB0BDE8F081F1
:1004E400000C02440004024200080242001C0242C2
:1004F4000000024272B6FEE700B589B02022002156
:100504006846FFF70FFF1A481A4B03600023436045
:1005140083604FF40042C2600361042242610376A7
:1005240043760122C26180F820308362C36280F87E
:1005340034300363836380F83C3000F02DFC90B9C1
:100544000D4B009306230193002302937F22039211
:100554000422049205936946054800F017FD20B96A
:1005640009B05DF804FBFFF7C5FFFFF7C3FF00BF49
:1005740028000020008002420200300400B58DB043
:100584002C22002101A8FFF7CDFE1348134B036072
:1005940002F052FDC8B9002201928DF8082001230F
:1005A4008DF809300392049205920693079201A9EB
:1005B400094802F053FD50B9102201A9064802F07F
:1005C4004DFD30B90DB05DF804FBFFF793FFFFF765
:1005D40091FFFFF78FFF00BF9000002000840242CC
:1005E40008B50648064B03604FF00043436002F031
:1005F40043FE00B908BDFFF77DFF00BFA400002043
:100604000014034008B502F0EFFA18B902F006FB33
:1006140010B908BDFFF76EFFFFF76CFF00B587B098
:100624000020019002900390049005904FF0104335
:100634000293012303934FF00043059301A902F0B1
:100644005BFE28B902F04EFE20B907B05DF804FB4A
:10065400FFF750FFFFF74EFF08B50D480D4B036041
:100664000122426000238360C360036142618361AD
:10067400C361036243628362C36203630822426309
:10068400836302F091FE00B908BDFFF733FF00BF9A
:10069400D00000200014004708B51348134B036032
:1006A4004FF480034360002383600722C260036128
:1006B40043614FF000518161C3610362436283620D
:1006C400C2624FF0804242638363C3638364C36442
:1006D400036543658365C365036602F0EDFF00B9F6
:1006E40008BDFFF707FF00BF3C04002000300140B5
:1006F40008B51548154B03604FF4800343604FF46D
:10070400003383600722C2600023036143614FF01A
:10071400806181614FF08051C161036243628362F1
:10072400C2624FF0804242638363C3638364C364E1
:10073400036543658365C365036602F0BDFF00B9C5
:1007440008BDFFF7D7FE00BFCC04002000380040EE
:1007540008B50B480B4B0360082303710223C371D4
:10076400437200238372C372037343738373C3732B
:10077400037403F065F800B908BDFFF7BBFE00BFC2
:100784002C0100200060014000B589B000230193D2
:100794000293039304930593069307931148124A13
:1007A400026043607F228260FF22C2600361436172
:1007B40083614FF08042C2610362436202F0FEFE35
:1007C40060B90023019304930593069301A9054896
:1007D40002F04EFF20B909B05DF804FBFFF78AFE72
:1007E400FFF788FE0C0400200078004400B59DB09B
:1007F4005022002108A8FFF795FD002302930393DC
:100804000493059306930793284B1A6942F0300228
:100814001A611B6903F030030193019B234B5B694D
:1008240013F0080FFAD002F0BBFA214AD2F8F030E4
:1008340023F01803C2F8F0300D2308934FF4A813E3
:10084400099301220A924FF080630E9302231293BC
:100854000321139114921E22159216930A221792C1
:1008640018930C23199300231A931B9308A801F0DF
:100874006FF8B8B91F23029303230393002304934F
:10088400059306930793052102A800F0FFFE58B9CB
:10089400084A136823F0300343F0200313601DB0AB
:1008A4005DF804FBFFF726FEFFF724FE0008024470
:1008B400000C02440020024000B5B5B0D022002153
:1008C4006846FFF72FFD4FF000620223CDE90023B5
:1008D40003230293012303931E22049214220592FC
:1008E40002220692052107910C2108914FF4A021C0
:1008F4000B912A922B93684601F050FC10B935B045
:100904005DF804FBFFF7F6FD08B502F05FFBFFF7A7
:100914006DFFFFF7D1FFFFF757FDFFF7EDFDFFF781
:100924002DFEFFF75DFEFFF76DFEFFF777FEFFF785
:1009340093FEFFF7B1FEFFF7DBFEFFF709FFFFF7BA
:1009440023FFFEE7FEE7FEE7FEE7FEE7FEE770476C
:100954007047704708B502F05DFB08BD70470000A2
:1009640010B5BCB0044600213791389139913A91C1
:100974003B91D02202A8FFF7D5FC22681B4B9A4278
:1009840001D03CB010BD4FF400120023CDE9022386
:1009940003232A9302A801F001FC18BB144BD3F8DB
:1009A4008C2042F48062C3F88C20D3F88C2002F4AB
:1009B40080620092009AD3F88C2042F00102C3F8BE
:1009C4008C20D3F88C3003F001030193019B0F2397
:1009D4003793032338930023399337A9054802F04A
:1009E4002DF9CEE7FFF786FDD8E700BF008002426D
:1009F400000C02440000024210B5BCB004460021C1
:100A04003791389139913A913B91D02202A8FFF75E
:100A140089FC22681A4B9A4201D03CB010BD4FF4B5
:100A240000120023CDE9022302A801F0B7FB18BB92
:100A3400144BD3F88C2042F40062C3F88C20D3F812
:100A44008C2002F400620092009AD3F88C2042F0C9
:100A54000102C3F88C20D3F88C3003F00103019316
:100A6400019B30233793032338930023399337A909
:100A7400054802F0E3F8D0E7FFF73CFDD8E700BFF4
:100A840000840242000C02440000024202680A4B45
:100A94009A4200D0704782B0084BD3F8882042F0C5
:100AA4008042C3F88820D3F8883003F08043019350
:100AB400019B02B0704700BF00140340000C0244C5
:100AC400F0B589B000230393049305930693079329
:100AD40002682D4B9A4201D009B0F0BD2B4BD3F8DC
:100AE400942042F48012C3F89420D3F8942002F4A2
:100AF40080120092009AD3F88C2042F00102C3F8CD
:100B04008C20D3F88C2002F001020192019AD3F8D0
:100B14008C2042F00202C3F88C20D3F88C3003F00E
:100B240002030293029B4023039302240494069439
:100B340006260796164F03A9384602F07FF880234D
:100B4400039304940025059506940A23079303A9A7
:100B5400384602F073F8032303930494059506942E
:100B640007960C4E03A9304602F068F840F204439D
:100B740003930494059506940923079303A9304627
:100B840002F05CF8A8E700BF00140047000C024420
:100B9400000002420004024210B5B6B00446D0225E
:100BA400002102A8FFF7BEFB2268114B9A4201D034
:100BB40036B010BD4FF000720023CDE902234FF48C
:100BC4000073319302A801F0E9FA68B9094BD3F82C
:100BD400A82042F40012C3F8A820D3F8A83003F4E4
:100BE40000130193019BE3E7FFF784FCEEE700BFEA
:100BF40000780044000C024430B5C1B00446002122
:100C04003B913C913D913E913F91D02206A8FFF744
:100C140089FB2368434A934204D0434A93423DD01C
:100C240041B030BD414BD3F8A42042F48052C3F804
:100C3400A420D3F8A42002F480520192019AD3F89C
:100C44008C2042F00102C3F88C20D3F88C2002F0EF
:100C540001020292029AD3F88C2042F00202C3F8F5
:100C64008C20D3F88C3003F002030393039B4FF4DE
:100C740000433B9302253C9505243F943BA92C4813
:100C840001F0DCFF38233B933C9500233D933E93D6
:100C94003F943BA9274801F0D1FFC1E74FF08052B0
:100CA4000023CDE906230323129302231393202266
:100CB4001492042215921693179318924FF48033CA
:100CC4001B931023329306A801F068FA38BB174B24
:100CD400D3F89C2042F48042C3F89C20D3F89C2093
:100CE40002F480420492049AD3F88C2042F0020267
:100CF400C3F88C20D3F88C3003F002030593059BD2
:100D04004FF430433B9302233C9300233D933E93A3
:100D140005233F933BA9074801F090FF80E7FFF7C5
:100D2400E9FBD4E70030014000380040000C0244E5
:100D3400000002420004024210B5B6B00446D022BC
:100D4400002102A8FFF7EEFA2268114B9A4201D063
:100D540036B010BD00221023CDE9022310233393B3
:100D640002A801F01BFA78B902F022F8094BD3F873
:100D7400A42042F08072C3F8A420D3F8A43003F076
:100D840080730193019BE3E7FFF7B4FBECE700BF3B
:100D940000600140000C024430B583B0002301938D
:100DA400002800F0E5800446836D13B323689A6835
:100DB40012F0005F05D09A6822F0204222F03F0230
:100DC4009A602268936813F0805F1FD1936823F0C0
:100DD400104323F03F0343F080539360654B1B683B
:100DE4009B09654AA2FB03239B0901335B00019322
:100DF40009E0FFF7B5FD0023E36584F85430D5E737
:100E0400019B013B0193019B002BF9D1226893685C
:100E140013F0805F40F08380A36D43F01003A3655B
:100E2400E36D43F00103E3650120936813F00403C9
:100E340000D00123A16D11F0100F40F09280002B1F
:100E440040F08F80A36D23F4817343F00203A36504
:100E5400936813F0010F14D1484B9B6813F00103FE
:100E640000D00123464A926812F0010200D0012208
:100E7400134306D1636843498A6822F47C121343FE
:100E84008B60627EA36B43EA4233E2681343A26839
:100E9400134394F8202043EA0243012A41D0A26A72
:100EA40022B102F47872E16A0A4313432168CD68DF
:100EB400354A2A401343CB602268136923F0406308
:100EC400216B0B4313612268936813F0080300D06D
:100ED4000123ABB9217E94F834305B0043EA8131BD
:100EE400D36823F4804323F002030B43D36094F8C4
:100EF4003C30012B1AD02268136923F001031361DB
:100F04002369012B24D02268136B23F00F0313638E
:100F1400A36D23F0030343F00103A36526E000203F
:100F240083E7626A013A43EA4243B8E721680B69FE
:100F340023F4FF6323F00403226C656C2A43A56C3D
:100F44002A43E56C2A43134343F001030B61D7E7BB
:100F540021680B6B23F00F03E269013A13430B631F
:100F6400D6E7A36D43F01003A365012003B030BDA1
:100F74000120FBE708000020632D3E0500800242AB
:100F840000810242008302420740F0FFF0B583B0C3
:100F94000022019290F85420012A00F07C8203463A
:100FA400012280F854200268926812F0040F09D0DC
:100FB400826D42F0200282650120002283F85420D1
:100FC40003B0F0BD0A68012A00F0AD801D684C68CA
:100FD4003035220A920002F00C02A85804F01F0EC9
:100FE4001F2404FA0EF420EA04000C68C4F3846C91
:100FF4000CFA0EFC40EA0C00A8501868826812F043
:10100400040200D00122846814F0080400D00124F2
:10101400002A50D1002C4ED18D68B5F1004F00F05C
:101024008A800F6814307A0E920002F00402865807
:10103400C7F3045E4FF0070C0CFA0EFC26EA0C0C06
:1010440005FA0EF54CEA050585501868426922F048
:10105400004242614D691868C268C2F3C10252007D
:1010640005FA02F20E69042E7DD0603050F8267025
:10107400AC4D3D400F6807F0F8473A43154345F03F
:10108400004540F826501A680E698869603252F8A3
:10109400265025F08075284342F826001A680D6909
:1010A400087F01285CD0603252F8250020F00070DF
:1010B400044342F825401868826812F0010F17D1E2
:1010C4000A68CD68D0F8B040C2F3130C24EA0C04CB
:1010D40005F0180C944D25FA0CF52A40C2F31302BE
:1010E4002243C0F8B020C868904A904200F0A38020
:1010F4000A688F490A4200F0CA818E49896801F062
:10110400E0748D48824200F067818C48824200F08E
:1011140087818B48824200F09A818A498A4200F092
:10112400AA81002049E78848D0F8C82042F001028B
:10113400C0F8C8204AE70D6814306A0E920002F025
:1011440004028658C5F30455072707FA05F526EA6D
:10115400050585501868426942F00042426179E70A
:101164004FF000749FE7026E046EC4F384640A684F
:10117400C2F3130585BBC2F38462944234D01C6865
:10118400626E606EC0F384600A68C2F3130585BBA7
:10119400C2F38462904234D01C68A26EA06EC0F385
:1011A40084600A68C2F3130585BBC2F3846290426B
:1011B40034D01C68E26EE06EC0F384600A68C2F347
:1011C400130585BBC2F3846290427FF474AFE26E70
:1011D40022F00042E2666EE792FAA2F212B1B2FA8B
:1011E40082F2CAE72022C8E7026E22F000420266B9
:1011F400C5E792FAA2F212B1B2FA82F2CAE7202249
:10120400C8E7626E22F000426266C5E792FAA2F273
:1012140012B1B2FA82F2CAE72022C8E7A26E22F023
:101224000042A266C5E792FAA2F212B1B2FA82F2C1
:10123400CAE72022C8E71C680A68C2F31305002D18
:1012440038D1900E013000F01F0009288CBF002017
:10125400012000287AD0002D3BD1900E0130800669
:1012640000F0F840002D40D1960E013606F01F071D
:101274000126BE403043002D45D1920E013202F0CA
:101284001F0202EB420212050243886804F11406AD
:10129400550EAD0005F004057459C2F304524FF025
:1012A400070C0CFA02FC24EA0C0C90404CEA0000F7
:1012B40070511DE792FAA2F048B1B0FA80F0013003
:1012C40000F01F0009288CBF00200120C1E7202066
:1012D400F5E792FAA2F030B1B0FA80F0013080065E
:1012E40000F0F840BEE72020F8E792FAA2F646B1F3
:1012F400B6FA86F6013606F01F06012707FA06F647
:10130400B8E72026F6E792FAA2F242B1B2FA82F2E4
:10131400013202F01F0202EB42021205B4E720225E
:10132400F6E700BF00F0FF03FFFF0F0000007F405F
:101334000000088000830242000021C3000029430A
:10134400000052C700005A4700800242CDB9900EF7
:101354000130800600F0F840FDB9960E013606F023
:101364001F070126BE4030432DBB920E013202F00E
:101374001F0202EB42021E3A120542F000720243BF
:1013840083E792FAA2F030B1B0FA80F0013080061F
:1013940000F0F840E0E72020F8E792FAA2F646B120
:1013A400B6FA86F6013606F01F06012707FA06F696
:1013B400D9E72026F6E792FAA2F25AB1B2FA82F2FB
:1013C400013202F01F0202EB42021E3A120542F001
:1013D4000072D4E72022F3E711F4000F7FF495AEF6
:1013E40019682E4A914201D00020E6E544F4000237
:1013F4002B48816821F0E0710A438260294A12680F
:1014040092092949A1FB0212920901325200019268
:10141400019A1AB1019A013A0192F9E70020CCE548
:1014240011F0807F7FF475AE1968204A914201D093
:101434000020C2E544F08072A0F19370A0F5FA4058
:10144400816821F0E0710A4382600020B5E511F45F
:10145400800F7FF462AE1968104A914201D00020D7
:10146400ABE544F480020E48816821F0E0710A4340
:1014740082600020A1E51A6808498A4209D0D2F89E
:10148400C81041F00101C2F8C810002095E5002001
:1014940093E5002091E5022092E500BF008002421E
:1014A4000083024208000020632D3E0500810242B1
:1014B4006E4BDB6903F01803082B00F0D1806B4BF3
:1014C400DB6913F0180F0DD1684B1B6813F0200F64
:1014D40000F0C880654B1868C0F3C100644B23FA60
:1014E40000F07047614BDB6903F01803102B00F028
:1014F400BB805E4BDB6903F01803182B01D05C48FA
:10150400704710B4594A936A03F0030C946AC4F305
:101514000520916AC1F30011936BC3F3CC0301FB63
:1015240003F307EE903AF8EE677A14F47C5F00F068
:101534009480BCF1010F1FD0BCF1030F62D007EE01
:10154400100AF8EE476A9FED4B6A86EE267A474BFF
:101554005B6BC3F3080306EE903AF8EE666A9FED00
:10156400466A67EE867A76EEA77AF7EE006A77EE39
:10157400A67A27EE277A61E03C4B1B6813F0200F14
:1015840023D03A490A68C2F3C102394BD34007EE6B
:10159400103AF8EE476A07EE100AB8EE476A86EE8C
:1015A400867A4B6BC3F3080306EE903AF8EE666A4C
:1015B4009FED316A67EE867A76EEA77AF7EE006AD7
:1015C40077EEA67A27EE277A38E007EE100AF8EECF
:1015D400476A9FED2A6A86EE267A244B5B6BC3F337
:1015E400080306EE903AF8EE666A9FED236A67EE0A
:1015F400867A76EEA77AF7EE006A77EEA67A27EE79
:10160400277A1BE007EE100AF8EE476A9FED1C6A82
:1016140086EE267A154B5B6BC3F3080306EE903A0D
:10162400F8EE666A9FED146A67EE867A76EEA77A1C
:10163400F7EE006A77EEA67A27EE277A0B4B5B6B00
:10164400C3F34623013307EE903AF8EE677AC7EE08
:10165400276AFCEEE67A17EE900A5DF8044B7047B1
:10166400084870470248704707487047000C024416
:101674000090D0030024744A000000390024744C04
:101684000024744B00093D000024F400002800F0FD
:10169400378170B50D4604469D4B1B6803F00F035C
:1016A4008B420BD29A4A136823F00F030B43136047
:1016B400136803F00F038B4240F02481236813F076
:1016C400100F0ED06269934B1B6A1B0A03F0700360
:1016D4009A4206D98F490B6A23F4E04343EA022372
:1016E4000B62236813F0080F0ED02269894B1B6A22
:1016F4001B0903F070039A4206D986490B6A23F446
:10170400E06343EA02130B62236813F0040F0CD066
:10171400E268804B1B6A03F070039A4205D97D4945
:101724000B6A23F070031A430A62236813F0020F52
:101734000CD0A268774B1B6A03F00F039A4205D9B9
:1017440074490B6A23F00F031A430A62236813F0E7
:10175400010F6CD06368032B0AD0022B2CD0012B11
:1017640031D06C4A126812F0020F07D10120C6E092
:10177400684A126812F0007F00F0C6806549CA69A1
:1017840022F003021343CB6101F050FC0646636868
:10179400032B1FD0022B2CD0012B39D05D4BDB69DE
:1017A40013F0180F43D001F041FC801B41F2883341
:1017B4009842F3D90320A2E0564A126812F4003F7B
:1017C400DCD101209BE0534A126812F4007FD5D18A
:1017D400012094E04F4BDB6903F01803182B26D04B
:1017E40001F024FC831B41F288329342F2D9032096
:1017F40085E0484BDB6903F01803102B17D001F088
:1018040015FC801B41F288339842F2D9032076E01C
:10181400404BDB6903F01803082B08D001F006FCE9
:10182400801B41F288339842F2D9032067E0236891
:1018340013F0020F0CD0A268364B1B6A03F00F039F
:101844009A4205D233490B6A23F00F031A430A6202
:101854002F4B1B6803F00F03AB420AD92C4A1368C1
:1018640023F00F032B431360136803F00F03AB4201
:101874004CD1236813F0040F0CD0E268254B1B6A8B
:1018840003F070039A4205D222490B6A23F07003D5
:101894001A430A62236813F0080F0ED022691D4B05
:1018A4001B6A1B0903F070039A4206D219490B6A9A
:1018B40023F4E06343EA02130B62236813F0100F6E
:1018C4000ED06269134B1B6A1B0A03F070039A4221
:1018D40006D210490B6A23F4E04343EA02230B6265
:1018E400FFF7E6FD0B4B1B6A03F00F030A4AD35CB8
:1018F400D8400A4B18600A4B186801F011FB70BD00
:10190400012070470120FAE70120F8E70120F6E7FB
:1019140000200240000C0244903A00080800002015
:101924000400002008B5FFF7C3FD064B1B6A03F053
:101934000F03054AD35C03F01F03D840034B186020
:1019440008BD00BF000C0244903A000808000020C3
:10195400002800F02883F8B50446A24BDD6905F0A1
:1019640018059E6A06F00306036813F0100F28D0CA
:10197400082D1AD0182D16D0E369002B46D0994AA9
:10198400136843F48073136001F050FB0746954BD2
:101994001B6813F4007F30D101F048FBC01B022800
:1019A400F5D9032008E3022EE6D1E369002B00F009
:1019B400FC828C4A936923F47C13216A43EA014331
:1019C4009361236813F0010F3AD0102D34D0182DF1
:1019D40030D06368B3F5803F5AD0002B6FD1814B70
:1019E4001A6822F480321A601A6822F480121A608B
:1019F4001A6822F480221A604FE07A4A936923F429
:101A04007C13216A43EA01439361DAE7754A136858
:101A140023F48073136001F009FB0746714B1B68C4
:101A240013F4007FCDD001F001FBC01B0228F5D9CF
:101A34000320C1E2032ECCD16368002B00F0B782EF
:101A4400236813F0020F00F0AE80002D78D0182D1B
:101A540074D0E368002B00F0D280624A136823F04C
:101A6400180321690B431360136843F001031360E7
:101A740001F0DCFA06465B4B1B6813F0020F40F0E2
:101A8400B58001F0D3FA801B0228F4D9032093E235
:101A9400544A136843F4803313606368002B3ED0C8
:101AA40001F0C4FA07464F4B1B6813F4003FC7D13B
:101AB40001F0BCFAC01B6428F5D903207CE2B3F51D
:101AC400A02F10D0B3F5A81F1BD0464B1A6822F4E0
:101AD40080321A601A6822F480221A601A6822F48A
:101AE40080121A60D9E73F4B1A6842F480221A60C8
:101AF4001A6822F480121A601A6842F480321A605A
:101B0400CBE7384B1A6842F480221A601A6842F410
:101B140080121A601A6842F480321A60BDE701F03C
:101B240085FA07462F4B1B6813F4003F88D001F059
:101B34007DFAC01B6428F5D903203DE2012E88D12B
:101B4400E368002B00F0358235B9264B1B6803F09F
:101B54001803226993420ED101F068FA0646214B1C
:101B64001B6813F0020F16D101F060FA801B0228E3
:101B7400F5D9032020E21B490B6823F018031A430C
:101B84000A60FFF7CFFE184B186801F0C9F9002866
:101B9400E2D0012010E2134A136923F4FE036169C1
:101BA40043EA01431361236813F0080F52D0A36979
:101BB400002B38D00B4AD2F8F03043F08063C2F8DF
:101BC400F03001F033FA0646064BD3F8F03013F048
:101BD400006F3FD101F02AFA801B0228F4D90320B8
:101BE400EAE100BF000C0244040000209B4A136990
:101BF40023F4FE03616943EA01431361D3E7974A7F
:101C0400136823F00103136001F010FA0646934BA6
:101C14001B6813F0020FC6D001F008FA801B0228DB
:101C2400F5D90320C8E18D4AD2F8F03023F080635F
:101C3400C2F8F03001F0FAF90646884BD3F8F030D8
:101C440013F0006F06D001F0F1F9801B0228F4D9DB
:101C54000320B1E1236813F0040F00F0A080804B4F
:101C64005B6A13F0010F18D0A368012B29D0002B55
:101C740043D17A4BD3F8F02022F00102C3F8F020CC
:101C8400D3F8F02022F08002C3F8F020D3F8F0203B
:101C940022F00402C3F8F0201AE0714A536A43F0B8
:101CA4000103536201F0C2F906466D4B5B6A13F0FF
:101CB400010FD9D101F0BAF9801B0228F5D903200C
:101CC4007AE1664AD2F8F03043F00103C2F8F0300A
:101CD400A368002B51D001F0A9F906465F4BD3F855
:101CE400F03013F0020F5AD101F0A0F9801B41F239
:101CF40088339842F2D903205EE1052B15D0852B59
:101D040027D0564BD3F8F02022F00102C3F8F0207C
:101D1400D3F8F02022F00402C3F8F020D3F8F02026
:101D240022F08002C3F8F020D2E74C4BD3F8F02025
:101D340042F00402C3F8F020D3F8F02022F080022D
:101D4400C3F8F020D3F8F02042F00102C3F8F020E9
:101D5400BEE7424BD3F8F02042F00402C3F8F0206F
:101D6400D3F8F02042F08002C3F8F020D3F8F0203A
:101D740042F00102C3F8F020AAE701F057F9064641
:101D8400364BD3F8F03013F0020F08D001F04EF9BF
:101D9400801B41F288339842F2D903200CE1236876
:101DA40013F0200F29D0636A9BB12C4A136843F4C3
:101DB4008053136001F03AF90646284B1B6813F46C
:101DC400005F1AD101F032F9801B0228F5D90320F3
:101DD400F2E0224A136823F48053136001F026F9D9
:101DE40006461E4B1B6813F4005F06D001F01EF973
:101DF400801B0228F5D90320DEE0A36A002B00F043
:101E0400DA80182D00F08980022B13D0134A13684E
:101E140023F08073136001F009F904460F4B1B682B
:101E240013F0007F70D001F001F9001B0228F5D9EE
:101E34000320C1E0094A136823F08073136001F0A2
:101E4400F5F80546054B1B6813F0007F0AD001F036
:101E5400EDF8401B0228F5D90320ADE0000C024444
:101E6400000802445C4B9A6A22F47C5222F003027A
:101E7400E16A206B41EA00210A439A62626B013AEB
:101E8400C2F30802A16B0139490289B20A43E16B2A
:101E94000139090401F4FE010A43216C01390906E0
:101EA40001F0FE410A435A639A6A22F010029A62D0
:101EB400E26CD2009A639A6A42F010029A629A6AB9
:101EC40022F00C02616C0A439A629A6A22F02002A0
:101ED400A16C0A439A629A6A42F480329A621A683E
:101EE40042F080721A6001F0A1F804463A4B1B6874
:101EF40013F0007F06D101F099F8001B0228F5D9F0
:101F0400032059E0002057E0334A936A23F4E02386
:101F140023F00303936200204EE02F4A916A506B32
:101F2400012B4AD001F00303E26A934247D1C1F383
:101F34000521236B994244D1C0F30802636B013B32
:101F44009A4240D1C0F34622A36B013B9A423CD152
:101F5400C0F30642E36B013B9A4238D1C0F30660FA
:101F6400236C013B984234D11B4B9B6BC3F3CC03D2
:101F7400E26C934201D100201EE0174A936A23F0D9
:101F84001003936201F052F8054601F04FF8A8429D
:101F9400FBD0E26CD200104B9A639A6A42F01002B2
:101FA4009A62002008E001207047012004E001202B
:101FB40002E0012000E00020F8BD0120FCE7012040
:101FC400FAE70120F8E70120F6E70120F4E7012011
:101FD400F2E70120F0E700BF000C024438B50546E3
:101FE400354A136823F08063136001F01FF8044638
:101FF400314B1B6813F0006F06D001F017F8001B7B
:102004000228F5D9032038BD2B4BDA6A22F47C521E
:1020140022F003022968686841EA00210A43DA626F
:10202400AA68013AC2F30802E9680139490289B28F
:102034000A4329690139090401F4FE010A43696963
:102044000139090601F0FE410A43DA63DA6A22F033
:102054000C02A9690A43DA62DA6A22F02002E96909
:102064000A43DA62DA6A696A0A43DA62DA6A22F0ED
:102074001002DA621A6C22F47F4222F0F802296A12
:1020840042EAC1021A64DA6A42F01002DA621A6899
:1020940042F080621A6000F0C9FF0446064B1B68D8
:1020A40013F0006F06D100F0C1FF001B0228F5D920
:1020B4000320A8E70020A6E7000C024438B5054633
:1020C400354A136823F08053136000F0AFFF0446D1
:1020D400314B1B6813F0005F06D000F0A7FF001B14
:1020E4000228F5D9032038BD2B4B1A6B22F47C52FD
:1020F40022F003022968686841EA00210A431A634E
:10210400AA68013AC2F30802E9680139490289B2AE
:102114000A4329690139090401F4FE010A43696982
:102124000139090601F0FE410A435A641A6B22F090
:102134000C02A9690A431A631A6B22F02002E969A6
:102144000A431A631A6B696A0A431A631A6B22F008
:1021540010021A639A6C22F47F4222F0F802296A70
:1021640042EAC1029A641A6B42F010021A631A68B6
:1021740042F080521A6000F059FF0446064B1B6877
:1021840013F0005F06D100F051FF001B0228F5D9BF
:102194000320A8E70020A6E7000C0244F8B5044693
:1021A400036813F0807F08D0924AD2F8E83023F015
:1021B4004043816D0B43C2F8E830236813F0010FEC
:1021C40021D0E36D052B3ED8DFE803F011030B119A
:1021D400111104F10800FFF701FF054645B12E4631
:1021E40013E004F13000FFF769FF0546F6E7002528
:1021F400804AD2F8D83023F00703E16D0B43C2F8CC
:10220400D830002601E000263546236813F0020F7B
:1022140034D0236E282B2FD8DFE803F01D2E2E2E6A
:102224002E2E2E2E182E2E2E2E2E2E2E282E2E2EE6
:102234002E2E2E2E1D2E2E2E2E2E2E2E1D2E2E2EDC
:102244002E2E2E2E1D0001263546DEE704F1080051
:10225400FFF7C4FE05466DBB664AD2F8D83023F0BA
:102264003803216E0B43C2F8D83007E004F1300084
:10227400FFF724FF0546EEE701263546236813F0F1
:10228400040F26D0636E802B41D018D833B1402B75
:1022940012D104F10800FFF7A1FE0546002D3CD140
:1022A400544AD2F8D83023F4E073616E0B43C2F879
:1022B400D8300EE02E46E1E70126354609E0B3F5B5
:1022C400807FEBD0B3F5A07FE8D0C02BE6D0012609
:1022D4003546236813F0080F2FD0A36EB3F5806F33
:1022E40049D01FD83BB1B3F5007F18D104F10800E1
:1022F400FFF774FE0546002D43D13E4AD2F8D8308C
:1023040023F46063A16E0B43C2F8D83015E004F1E6
:102314003000FFF7D3FE0546C0E72E46D9E7012675
:1023240035460AE0B3F5006FE5D0B3F5206FE2D08F
:10233400B3F5C06FDFD001263546236813F0100FC4
:102344002FD0E36EB3F5005F49D01FD83BB1B3F58E
:10235400805F18D104F10800FFF740FE0546002D08
:1023640043D1244AD2F8D83023F4E043E16E0B433E
:10237400C2F8D83015E004F13000FFF79FFE05469F
:10238400B9E72E46D9E7012635460AE0B3F5804F72
:10239400E5D0B3F5A04FE2D0B3F5405FDFD001261E
:1023A4003546236813F0200F31D0236FB3F5803FF7
:1023B4004BD021D83BB1B3F5004F18D104F108003C
:1023C400FFF70CFE0546002D45D10A4AD2F8D83055
:1023D40023F46033216F0B43C2F8D83017E004F1C3
:1023E4003000FFF76BFE0546B9E72E46D9E7012614
:1023F40035460CE0000C0244B3F5003FE3D0B3F5DE
:10240400203FE0D0B3F5C03FDDD001263546236838
:1024140013F4805F2FD0636FB3F1007F46D01FD8D1
:102424003BB1B3F1807F18D104F10800FFF7D6FD6A
:102434000546002D40D1AA4AD2F8E03023F0E063EB
:10244400616F0B43C2F8E03015E004F13000FFF790
:1024540035FE0546B7E72E46D9E7012635460AE09C
:10246400B3F1806FE5D0B3F1A06FE2D0B3F1407F58
:10247400DFD001263546236813F4005F22D0A36F12
:10248400B3F5803F3CD019D9B3F5003F02D0B3F582
:10249400403F32D1002D39D1914AD2F8E43023F4AF
:1024A4004033A16F0B43C2F8E4300BE004F1300079
:1024B400FFF704FE0546BCE72E46DCE7002BE9D017
:1024C40001263546236813F4804F25D0E36FB3F516
:1024D400802F41D01CD9B3F5002F02D0B3F5402F83
:1024E40037D1002D3ED17E4AD2F8E43023F4402384
:1024F400E16F0B43C2F8E4300EE001263546E1E714
:1025040004F13000FFF7DAFD0546C3E72E46D9E7AC
:10251400002BE6D001263546236813F4004F27D05C
:10252400D4F88030B3F5801F73D01DD9B3F5001FE4
:1025340002D0B3F5401F69D1002D70D1684AD2F89A
:10254400E43023F44013D4F880100B43C2F8E43091
:102554000EE001263546DFE704F13000FFF7AEFD5B
:102564000546BEE72E46D7E7002BE5D001263546C3
:10257400236813F4803F0BD0D4F88430B3F1807F08
:102584004FD0B3F1007F51D0002B4FD001263546F8
:10259400636813F4805F0BD0D4F88830B3F1806F94
:1025A40052D0B3F1006F54D0002B52D001263546DF
:1025B400636813F4006F09D0494BDA6922F40042CE
:1025C400DA61DA69D4F8C8100A43DA61236813F4CB
:1025D400003F5AD0D4F88C30B3F5007F74D049D87A
:1025E4003BB1B3F5807F42D104F10800FFF7F6FC5C
:1025F4000546002D6ED13A4AD2F8DC3023F4E0636C
:10260400D4F88C100B43C2F8DC303EE0012635468A
:10261400AEE704F13000FFF751FD05468CE72E4686
:10262400A6E704F13000FFF749FD054655B92C4AE9
:10263400D2F8E43023F04073D4F884100B43C2F88A
:10264400E430A5E72E46A3E704F13000FFF736FD9A
:10265400054655B9224AD2F8E43023F04063D4F851
:1026640088100B43C2F8E430A2E72E46A0E7012607
:1026740035460AE0B3F5806FBBD0B3F5A06FB8D090
:10268400B3F5407FB5D001263546236813F4802F77
:1026940033D0D4F89030B3F5005F3DD022D83BB1AD
:1026A400B3F5805F18D104F10800FFF797FC0546E5
:1026B400C5BB0B4AD2F8DC3023F4E043D4F89010C5
:1026C4000B43C2F8DC3018E004F13000FFF7F6FCED
:1026D40005468EE72E46D8E7012635460DE000BFB5
:1026E400000C0244B3F5804FE2D0B3F5A04FDFD025
:1026F400B3F5405FDCD001263546236813F4001F90
:1027040029D0D4F8A030022B1DD00DD9033B022BC5
:102714000CD9012635461EE004F13000FFF7CEFC4B
:102724000546C5E72E46E8E7012B12D8002D40D117
:10273400A04AD2F8E83023F00703D4F8A0100B43E2
:10274400C2F8E83007E004F10800FFF747FC05464B
:10275400ECE701263546636813F4007F06D0D4F80D
:10276400A43043B3082B26D001263546236813F042
:10277400007F2CD1236813F0806F00F0A280D4F87E
:102784009830102B00F0B88040F29680202B02D0B5
:10279400302B40F0AE80002D40F0B480854AD2F852
:1027A400E83023F03003D4F898100B43C2F8E83033
:1027B40087E02E46CFE745B97E49D1F8E82022F0DC
:1027C40008021343C1F8E830D0E72E46CEE77A4A30
:1027D400536A43F00103536200F028FC0746764B2A
:1027E4005B6A13F0010F05D100F020FCC01B022826
:1027F400F5D90325002D5BD16E4BD3F8F03013F4DB
:10280400407316D0D4F8BC209A4212D0694AD2F848
:10281400F03023F44073D2F8F01041F48031C2F860
:10282400F010D2F8F01021F48031C2F8F010C2F8A0
:10283400F03013F0010F1ED1002D3BD1D4F8BC3081
:1028440003F44072B2F5407F27D05A4AD36923F487
:102854007C53D361574BD3F8F02022F44072C3F871
:10286400F020D3F8F020D4F8BC10C1F30B010A43D4
:10287400C3F8F0207EE700F0D9FB07464D4BD3F8B0
:10288400F03013F0020FD7D100F0D0FBC01B41F29F
:1028940088339842F2D90325CEE74649CA6922F41F
:1028A4007C52C3F3171323F030031343CB61D1E7F6
:1028B4002E465FE72E465DE7002B3FF46CAF012602
:1028C4003546236813F4800F06D0D4F89C30DBB16E
:1028D400402B2AD001263546236813F0006F3CD0E4
:1028E400D4F8AC30042B5FD8DFE803F02752582C1F
:1028F4002C0001263546E4E72E4A936A43F400335C
:10290400936248E72E46DCE72A4A936A43F400338D
:10291400936285B9274AD2F8E43023F04003D4F80F
:102924009C100B43C2F8E430D6E704F10800FFF72B
:1029340055FB0546EDE72E46CEE71E4A936A43F45F
:10294400003393629DBB1B4AD2F8E03023F00703A7
:10295400D4F8AC100B43C2F8E030236813F0805F66
:102964004BD0D4F8B030202B45D8DFE803F027440F
:1029740044444444444438444444444444443E4425
:102984004444444444442C444444444444442C0077
:1029940004F10800FFF722FB0546D3E704F13000F9
:1029A400FFF78CFB0546CDE701263546D5E72E46D5
:1029B400D3E700BF000C024400080244894A936A2A
:1029C40043F4003393625DBB864AD2F8E03023F0CF
:1029D4003803D4F8B0100B43C2F8E0300DE004F132
:1029E4000800FFF7FBFA0546EDE704F13000FFF7B6
:1029F40065FB0546E7E701263546236813F0005FCB
:102A040024D0D4F8B430802B49D00ED8002B40D039
:102A1400402B07D104F10800FFF7E0FA054609E06E
:102A24002E46EAE70126354610E0C02B02D0B3F566
:102A3400807F2BD1002D38D16A4AD2F8E03023F4BC
:102A4400E073D4F8B4100B43C2F8E030236813F0F9
:102A5400804F3AD0D4F8B830B3F5806F41D029D83C
:102A64003BB1B3F5007F22D104F10800FFF7B6FAB9
:102A74000546002D3BD15B4AD2F8E03023F4606375
:102A8400D4F8B8100B43C2F8E0301EE001263546F6
:102A9400DCE7544A936A43F400339362CAE704F1CF
:102AA4003000FFF70BFB0546C4E72E46CEE70126B0
:102AB40035460AE0B3F5006FDBD0B3F5206FD8D00C
:102AC400B3F5C06FD5D001263546636813F0020F05
:102AD4002AD0D4F8A830032B22D8DFE803F00F0A59
:102AE4001B0F04F13000FFF7E9FA0546C1E72E4653
:102AF400EBE73C4A936A43F4003393629DB9394A45
:102B0400D2F8E43023F00303D4F8A8100B43C2F83E
:102B1400E43009E004F10800FFF760FA0546EDE748
:102B24000126354600E02E46636813F0040F0AD0F0
:102B3400D4F89430B3F5807F22D0B3F5007F30D041
:102B44001BB301263546636813F0100F08D0D4F880
:102B5400C430202B3ED0302B30D0102B29D001266E
:102B6400636813F0080F09D01E4AD2F8E83023F046
:102B7400C003D4F8C0100B43C2F8E8303046F8BDA7
:102B8400184A936A43F40033936285B9154AD2F81C
:102B9400E83023F44073D4F894100B43C2F8E830BF
:102BA400D1E704F10800FFF719FA0546EDE72E46D0
:102BB400C9E70C4A936A43F40033936285B9094A1E
:102BC400D2F8E43023F03003D4F8C4100B43C2F835
:102BD400E430C5E704F13000FFF770FA0546EDE78D
:102BE4002E46BDE7000C02440A4B9B6A13F0010F0A
:102BF4000BD0084B084A5A6002F188325A609B6A2B
:102C040013F0010F03D1002070470020704701200A
:102C1400704700BF0020024023016745064B9A6AB3
:102C240042F001029A629B6A13F0010F01D0002066
:102C340070470120704700BF00200240F0B5002219
:102C440063E086682E40CC6804FA0EF43443846052
:102C5400446824EA0C0C4C68C4F30014944044EA1D
:102C64000C0444604C68032C06D0C46825408C686E
:102C740004FA0EF42C43C4604C6814F0805F43D013
:102C84009508424F183557F825C002F00304E600B2
:102C94000F24B4402CEA040C3D4C04EA9024B440C4
:102CA40044EA0C0447F825403D68DC4325EA030662
:102CB4004F6817F4801F01D043EA0506334D2E6098
:102CC4006D6804EA05064F6817F4001F01D043EA53
:102CD40005062E4D6E60D5F8845004EA05064F684B
:102CE40017F4003F01D043EA0506284DC5F8846077
:102CF400D5F880502C404E6816F4803F01D043EA4A
:102D04000504224BC3F8804001320B6833FA02F405
:102D14003AD04FF0010C0CFA02FC1CEA0303F3D086
:102D24004C68022C01D0122C12D1D508083550F869
:102D3400257002F00704A6000F24B44027EA040E0D
:102D44000C6904F00F04B44044EA0E0440F8254032
:102D540006684FEA420E032404FA0EF4E54326EA19
:102D640004064C6804F0030404FA0EF434430460CB
:102D74004C68661E012E7FF664AF112C3FF461AFE0
:102D8400122C7FF46FAF5CE7F0BD00BF002002445B
:102D94007F7F2F000AB18161704781627047000014
:102DA400024A536A43F00103536270470008024425
:102DB400024A936B43F00073936370470008024424
:102DC400074AD36823F4E0631B041B0C000200F4DD
:102DD400E060034343F0BF6343F40033D3607047C0
:102DE40000ED00E000B5194BDB68C3F30223C3F127
:102DF400070CBCF1040F28BF4FF0040C03F1040EC0
:102E0400BEF1060F18D9033B4FF0FF3E0EFA0CFC3F
:102E140021EA0C0199400EFA03F322EA0303194351
:102E240000280BDB0901C9B200F1604000F56140E4
:102E340080F800135DF804FB0023E5E700F00F00C1
:102E44000901C9B2024B1954F4E700BF00ED00E0D8
:102E540014ED00E00138B0F1807F09D24FF0E02397
:102E64005861002098611A6942F003021A617047A0
:102E740001207047042838D8DFE800F00A18283702
:102E840003004FF0E022136943F004031361704719
:102E94004FF0E022136923F004031361134AD2F8BC
:102EA400E43023F00C03C2F8E43070474FF0E02222
:102EB400136923F0040313610C4AD2F8E43023F0BD
:102EC4000C0343F00403C2F8E43070474FF0E022EF
:102ED400136923F004031361044AD2F8E43023F0A5
:102EE4000C0343F00803C2F8E4307047000C0244BA
:102EF4004FF0E023186910F004000AD1074BD3F80F
:102F0400E43003F00C03042B05D0082B04D1022079
:102F14007047042070470120704700BF000C024432
:102F240038B5274B1A78002A47D005464FF0E023DE
:102F34001C6914F004040DD0224B1B684FF47A74FE
:102F4400B4FBF2F2B3FBF2F42046FFF783FF50B375
:102F5400012033E0FFF7CCFF01280ED0022817D060
:102F64000028F1D1174B1B68154A12784FF4FA5414
:102F7400B4FBF2F4B3FBF4F4E6E7114B1B784FF423
:102F84007A74B4FBF3F44FF4FA43B3FBF4F4DBE7E1
:102F94000B4B1B784FF47A74B4FBF3F44FF40043F7
:102FA400B3FBF4F4D0E7002229464FF0FF30FFF7DB
:102FB40019FF054B1D60002000E0012038BD00BF53
:102FC40000000020080000200400002010B50320A9
:102FD400FFF7F6FEFEF76CFA0B4B1B6A03F00F03C8
:102FE4000A4AD35CD8400A4B18600420FFF742FF1A
:102FF4000F20FFF795FF10B10124204610BD0446B1
:10300400FDF7ACFCF9E700BF000C0244903A00085D
:1030140008000020034B1B78034A11680B4413601B
:10302400704700BF000000205C050020014B1868B9
:10303400704700BF5C05002070B110B504460379E9
:1030440033B102232371002020610123237110BDB9
:103054004371FDF7D1FCF4E701207047002800F02C
:10306400E9802DE9F0410C4616460546002900F09A
:10307400E3804379012B00F0E180012343710223B3
:1030840003718B68042B17D0A369012B5FD02B68C5
:10309400DF6B06F010060723B34027EA03076369D2
:1030A400012B61D0022B00F0AB802369002B40F090
:1030B400AA804FF0010859E0FFF7B8FF07469EB118
:1030C4002B685A6B002A3FDAFFF7B0FFC01B0128B8
:1030D400F6D92B685B6B002BF2DA2B6943F00803FB
:1030E4002B610320287189E02B685A6B12F4004F7E
:1030F40010D0FFF79BFFC01B0128F5D92B685B6B31
:1031040013F4004FF0D02B6943F008032B61032024
:10311400287173E0226A1A642868826C06F0100130
:1031240040F2FF338B4022EA0302636A8B401A4366
:1031340082642868C36CFF228A4023EA0203A26ADD
:103144008A401343C3649FE7226A5A64E4E7296808
:103154008A6B06F010001F23834022EA0302E3690E
:10316400834013438B6392E74FF00008A3682269FE
:10317400134343EA08034FF48072B24027EA02077C
:103184002279012A42D04FF0000848EA03034FF4A1
:103194000072B24027EA02076279012A39D04FF05F
:1031A400000848EA030827F440472368022B33D079
:1031B4001F4308FA06F848EA07072B68DF63296803
:1031C4000B684FF48042B24023EA02030B60296883
:1031D4000B6840F6FE72B24023EA0202E368B34091
:1031E40013430B6029680B68C02202FA06F623EA2F
:1031F40006060E6001232B7100206871BDE8F08182
:103204004FF00108B2E74FF00008AFE74FF48078C1
:10321400BBE74FF40078C4E7FEF784FB084B984201
:1032240002D947F40047C4E7064B9842C1D947F492
:103234008047BEE7012070470120DFE70220DDE779
:103244000068890900B4C404704770477047704728
:103254007047024658B10368596811F0090F08D144
:10326400002090621A6842F001021A60704701203F
:10327400704702207047000030B310B5044690F840
:10328400243073B9114B8360114BC360114B03613C
:10329400114B4361114B8361C36993B1E3692046C8
:1032A40098470023A362012384F82430226813681A
:1032B40023F0004361680B4313602046FFF7C9FF06
:1032C40010BD074BC361E9E7012070475532000880
:1032D4004D3200084F3200085332000851320008C2
:1032E400910A0008034A136843F0010313600020A5
:1032F400704700BF00040340134B1B6813F0010F19
:103304001DD170B4114C54F8203013F4004F18D16F
:103314000B688D686A4202EA5353DBB212044E68AA
:1033240002EA56121A43CB6843EA452309690B4360
:10333400134343F4004344F82030002002E001200A
:103344007047012070BC7047000403402004034010
:103354002DE9F84305460F4616469946DDF82080C8
:103364002C68246A3C4214BF4FF0010C4FF0000C4F
:10337400B44513D0B8F1FF3FF2D0FFF757FEA0EBEE
:103384000900404502D8B8F1000FE9D102232B65AA
:103394006B6D43F001036B65032000E00020BDE882
:1033A400F88381650020704730B583B00446FFF789
:1033B4003DFE002C00F08480054600236365236DE8
:1033C40013B1002003B030BD2046FDF779FB41F274
:1033D40088312046FFF7E5FF20688368394A1A40A0
:1033E400E368216943EA01436169013943EA01233E
:1033F400E1690B43134383602368334A934203D048
:1034040002F18052934205D19A6822F00802616B5E
:103414000A439A602268D36823F4E023216A0B43A9
:10342400D3602268136923F4F813216B43EA014340
:1034340013612368A26B5A6121680B6823F4F85363
:103444006268013A43EA02230B60A36D00932B46A2
:10345400002220212046FFF77BFF0028B2D12268FA
:10346400D36823F0FF03616A0B43D36022681368B7
:1034740023F04003A1680B4313602168D1F808319D
:1034840023F0A043A26AE56A2A431343C1F8083132
:103494002268136843F001031360A369022B06D06A
:1034A400E368B3F1806F08D0022323658AE72268BA
:1034B400936843F002039360F2E70123236581E7F5
:1034C40001207FE7FCC0E0F80014004738B505464A
:1034D4000F4AD36823F02003D360FFF7A7FD044607
:1034E4000B4BDB6813F0200F10D1FFF79FFD001B7F
:1034F400B0F57A7FF4D9064BDB6813F0200F01D0C6
:10350400002004E0032085F82D0000E0002038BDF1
:103514000078004470B5144BDB6813F0400F02D000
:103524000024204670BD05460F4AD36843F080034B
:10353400D360FFF77BFD064600240B4BDB6813F0DA
:10354400400FEED1032CECD0FFF770FD831BB3F5D5
:103554007A7FF2D9044BDB6813F0400FE1D10324E6
:1035640085F82D40E9E700BF0078004410B5044613
:10357400114BDA6822F08002DA609B6913F0200FA5
:1035840007D1FFF7A3FF0346A0B1032384F82D302E
:1035940010E0094A936923F020039361FFF796FF33
:1035A400034610B1032384F82D3003498A6942F09D
:1035B40020028A61184610BD00780044002852D0C9
:1035C40038B5044690F82D3063B1022384F82D30C9
:1035D400264BDB6813F0100F09D00020012384F878
:1035E4002D3038BD80F82C30FDF7D6FAEDE71F4BAF
:1035F400CA225A6253225A622046FFF78BFF28B12F
:103604001A4BFF225A620028EBD1E7E7174B9A695D
:1036140022F08E6222F040029A6199696268206900
:103624000243A06902430A439A61E268A16842EA3C
:1036340001421A61DA6822F4F852616AA06A01430D
:103644000A43DA602046FFF791FF0028D8D10749E2
:103654008B6923F06043226AE5692A4365692A433A
:1036640013438B61CCE70120704700BF007800440E
:103674000B684A6813430A4AD3618B68CA681343C8
:103684008A691343074A5362136A03F0FF230869E4
:10369400496940EA01410B4313620020704700BFAF
:1036A40000780044007C0044C36B5B09C0680830A8
:1036B400C00803FB00007047002800F0B58038B54F
:1036C4000446056800238362594B9D4247D003F1A9
:1036D40080539D4243D02046FFF7E6FF544B9D4262
:1036E40042D003F180539D423ED0524B9D4211D0B3
:1036F40003F180539D420DD04F4B9D420AD003F1FC
:1037040080539D4206D04D4B9D4203D003F180531C
:103714009D4202D1102800F2898094F889303BB38D
:10372400022384F889302268136823F001031360AC
:1037340021688A6802F4F812A369B3F1806F1DD07E
:10374400636813F4800F2CD0E368062B29D9216811
:103754000B6823F48073206D03430B6026E0E36859
:103764000F2BB8D901205EE00828BED901205AE009
:1037740084F888302046FDF73FFAD1E76368B3F553
:10378400800F06D0002BDBD1A36BB3F1805FD7D1C0
:1037940002E0A06B0028F5D10B6843F480530B6062
:1037A400CEE721680B6823F480730B60E369A16A98
:1037B4000B431343E26B1343E16822680B439360AA
:1037C400636B626A1343A26B1343A26913432269B6
:1037D400134362691343226A134362681343E26C1E
:1037E4001343A2681343A26C1343A26D1343E26D07
:1037F4001343216E22680B43D3602268136D23F0B8
:1038040001031365636813F4800F06D02268D3683C
:1038140023F00043616D0B43D3600020C4F88C0097
:10382400012384F8893038BD012070470120FAE76C
:10383400004C01400030014000380040003C004092
:1038440000285AD010B582B0044690F895323BB1A6
:10385400032384F89532206800F061F8002316E011
:1038640080F89432FDF768FAF2E703EB830204EB85
:10387400C2020121517513750021D1755162916203
:10388400013303EB830204EBC2025160DBB2207903
:103894009842EAD8002316E003EB830204EBC20249
:1038A400002182F8551182F8543182F85711C2F878
:1038B4006411C2F8681103EB830204EBC202C2F87C
:1038C4006C110133DBB29842E6D8237C8DF80030CA
:1038D400231D0ECB206800F03BF800236374012302
:1038E40084F89532237B012B02D0002002B010BD56
:1038F400204600F004F80020F8E701207047034652
:1039040002680121C0F8D412002083F8CC02536D60
:103914000B435365536D43F0020353657047036CC7
:1039240023F43F4323F0800303640020704729B944
:10393400026C22F00042026408467047012905D156
:10394400036C43F000430364002070470120704778
:1039540084B010B504460DF10C0C8CE80E00012364
:103964000364036C23F0010303640021FFF7DFFF0A
:1039740000236364BDE8104004B0704710B42249CA
:10398400D1F8883043F47003C1F888301F4B01220A
:103994001A600022DA611A621C681D48204018600F
:1039A4009A62DA621A631B4858639A63D8631A648A
:1039B40058649A64186820F4802018601A654FF0DF
:1039C40000638B60144B9B6903F06043B3F1604F59
:1039D40002D0B3F1404F13D10F4BDB6913F0010F49
:1039E40005D00D4B0D4ADA6002F14432DA600A4B1D
:1039F400DA6942F00202DA61DA6942F00102DA615C
:103A04005DF8044B704700BF00ED00E0000C024479
:103A1400E3EAE2EA80020101002002403B2A19089D
:103A24000D488546FFF7AAFF0C480D490D4A0023AF
:103A340002E0D458C4500433C4188C42F9D30A4A5F
:103A44000A4C002301E013600432A242FBD3FCF7CA
:103A540045FCFCF759FFFEE700400420000000206D
:103A64000C000020A83A00080C000020600500208B
:103A7400FEE70000F8B500BFF8BC08BC9E467047DE
:0C3A8400F8B500BFF8BC08BC9E467047B7
:103A900000000000000000000102030406070809FE
:043AA000C102000857
:043AA400990200087B
:0C3AA80001000000100000000090D0039E
:0400000508003A2590
:00000001FF
