:020000040800F2
:10000000008000207DC10008DD7A0008DF7A00084A
:10001000E17A0008E37A0008E57A000800000000B1
:10002000000000000000000000000000E77A000867
:10003000E97A000800000000EB7A0008ED7A000879
:10004000CDC10008CDC10008CDC1000800000000EE
:10005000CDC10008CDC10008CDC1000800000000DE
:10006000CDC10008CDC1000800000000CDC10008CE
:10007000CDC10008CDC10008CDC10008CDC1000828
:10008000CDC10008CDC10008CDC10008F57A000837
:10009000CDC10008CDC10008CDC10008CDC1000808
:1000A000017B0008CDC10008CDC10008CDC100080A
:1000B000CDC10008CDC10008CDC10008CDC10008E8
:1000C0000D7B0008CDC10008CDC10008CDC10008DE
:1000D00000000000CDC10008CDC10008CDC100085E
:1000E000CDC10008CDC10008CDC10008CDC10008B8
:1000F000CDC10008CDC10008CDC10008000000003E
:1001000000000000CDC10008CDC10008CDC100082D
:10011000CDC10008CDC10008CDC10008CDC1000887
:10012000CDC10008CDC10008CDC10008CDC1000877
:10013000CDC100080000000000000000CDC1000893
:10014000CDC1000800000000000000000000000019
:100150000000000000000000CDC100080000000009
:100160000000000000000000CDC10008CDC1000863
:10017000000000000000000000000000000000007F
:10018000000000000000000000000000000000006F
:10019000000000000000000000000000000000005F
:1001A0000000000000000000CDC10008CDC1000823
:1001B000CDC10008CDC10008CDC10008CDC10008E7
:1001C000CDC10008CDC10008000000000000000003
:1001D000000000000000000000000000CDC1000889
:1001E000CDC1000800000000000000000000000079
:1001F00000000000000000000000000000000000FF
:1002000000000000CDC10008CDC1000800000000C2
:1002100000000000CDC10008000000000000000048
:10022000000000000000000000000000CDC1000838
:10023000CDC1000800000000000000000000000028
:10024000000000000000000000000000CDC1000818
:08025000CDC10008CDC100087A
:100258000348044B834202D0034B03B1184770474D
:10026800C0060020C006002000000000064B074919
:10027800C91A891048BF0131491003D0044B0BB18A
:1002880001481847704700BFC0060020C00600207C
:100298000000000010B5064C237843B9FFF7D8FFDB
:1002A800044B13B10448AFF300800123237010BD41
:1002B800C006002000000000D0C1000808B5044BAB
:1002C8001BB104490448AFF30080BDE80840CDE7FE
:1002D80000000000C4060020D0C100080EB400B51C
:1002E80082B0816803AB53F8042B019300F01CF82B
:1002F80002B05DF804EB03B0704700BF0FB40849C3
:1003080000B583B0086804AB816853F8042B0193E7
:1003180000F00AF803B05DF804EB04B0704700BFC2
:1003280078010020000000002DE9F04FBDB01C4608
:100338001746054603910993079003F0CBF8036825
:1003480018460F9303F090FA0E901DB16B6B002BBB
:1003580001F0B7800399B1F90C30980406D44A6EBD
:1003680043F4005322F400528B814A66190740F186
:10037800B780039A1269002A00F0B28003F01A03CA
:100388000A2B00F0BC802CAA00239FED6F7B9246BD
:100398000B931F9210930593CDE920338DED0C7BC1
:1003A8003B783C46252B19D0C3B1254614F8013FAC
:1003B8000BB1252BF9D1E61B10D0209A219B0132D5
:1003C8003344072A20922193CAE9007600F3A680D5
:1003D8000AF1080A059B334405936B78002B00F05B
:1003E800A6804FF0000301344FF0FF328DF85B30E8
:1003F80000232746049219469B4617F8018BA8F15B
:100408002003582B00F2A480DFE813F04903A20070
:10041800A2004603A200A200A200A200A200A2001D
:1004280084014203A2008C015B03A2005803590017
:1004380059005900590059005900590059005900EC
:10044800A200A200A200A200A200A200A200A20094
:10045800A200A20052031801A2001801A200A200E3
:10046800A200A2003F03A200A2003B03A200A20038
:10047800A200A200A2003703A200A200C506A200A3
:10048800A200A200A200A200A200A200A200A20054
:10049800A20025035B011801180118018F015B01F7
:1004A800A200A2006700A2001903E3029E026700EF
:1004B800A2006E02A2009201A200A200F806A8F112
:1004C8003003002101EB810117F8018B03EB410197
:1004D800A8F13003092BF5D991E74BF0100B8CE705
:1004E8000399079802F0F4FD002841F0DB81039B93
:1004F800B3F90C3003F01A030A2B7FF444AF039BC3
:10050800B3F90E30002BFFF63EAF23463A46039967
:1005180007983DB0BDE8F04F01F0CABA1FAA039989
:10052800079801F037FB30B90DF1B00A52E7219B6B
:10053800002B41F0A980039B9B895B0601F1B281E6
:1005480005983DB0BDE8F08F0000000000000000F5
:100558000691B8F1000FEAD00023012222AD8DF8F0
:1005680088808DF85B30049308920A930292219C4C
:100578001BF08403214600F006819DF85B2042B3FE
:10058800DDF880C000260CF101020DF15B01013499
:10059800CAF80010072A4FF00101CDE92024CAF853
:1005A800041000F36D830AF1080A96B1DDF880C0E3
:1005B8000CF1010217A90234CAF80010072A4FF0FB
:1005C8000201CDE92024CAF8041000F34B830AF194
:1005D800080A802B00F08F82049B089A9E1A002E2E
:1005E80000F3E2801BF4807F40F01F81089BCAF86B
:1005F80000501C44CAF80430209B21940133072B77
:10060800209300F3D4820AF1080A1BF0040F05D0E6
:10061800069B029A9D1A002D00F340830299DDE99A
:1006280005328A42ACBF9B185B180593002C40F03A
:10063800A68200230DF1B00A2093B1E6099B4FF082
:10064800FF320691073323F00701BA4BB1EC027B66
:1006580055EC174B099125F000418DED127A139155
:10066800DDE912458DED0C7B2046294606F0C4FDD8
:10067800002840F0B08420464FF0FF32AD4B2946A9
:1006880006F09CFD0446002840F0A58400220023C3
:100698002BF0800BDDE90C0106F086FD002840F008
:1006A8006A87B8F1470F9DF85B30CCBFA24DA34DC8
:1006B800002B41F07B81032204930A930892029253
:1006C80055E7099B1BF0100F069103F1040108463A
:1006D80000F03D85099B08461A681346002AC0F2B7
:1006E8003584049D9DF85B40002D04DB15432BF0F9
:1006F800800B00F0F886092A00F2D485049B30327A
:10070800012B8DF8AF20B8BF01230293002C40F0D5
:1007180031842BE0099B53F8041B002980F23584AF
:10072800494209934BF0040B67E64BF0400B64E633
:100738001BF01003069100F0F484049A0023099832
:10074800002A8DF85B3050F8043B04DB1A432BF089
:10075800800B00F01885092B00F28A8630338DF85B
:10076800AF30049B012BB8BF0123029309900123EA
:10077800219C0DF1AF050893002321460A931BF035
:1007880084037FF4FAAE069A0298161A002E00F334
:1007980042839DF85B20002A7FF4F2AE049B089AFE
:1007A8009E1A002E7FF71EAF102E209ADFF8909128
:1007B8002ADD51462046CA4604951023079CB946AF
:1007C800039D02E0103E102E19DD013210305C4FFF
:1007D800072AC1E90073CDE9202001F10801F1DD04
:1007E80029461FAA204601F0D5F92CA900287FF434
:1007F800A2AE103E1023102EDDE92020E5DC4F4686
:10080800049DD14604468A4601323444CAF8009011
:10081800072ACAF80460CDE9202400F38A831BF470
:10082800807F0AF1080A3FF4E1AEB8F1650F40F3A2
:10083800CA8100220023DDE90C0106F0ABFC002888
:1008480000F06C82209B01343E4A01332194CAF89F
:1008580000200122072B2093CAF8042000F32486E5
:100868000AF1080A189B0B9A934280F289830E9B1F
:100878000F9A1C44CAE90023209B21940133072BBB
:10088800209300F3C9840AF1080A0B9B5D1E002D12
:100898007FF7BBAE102D209BDFF8A49040F37C813E
:1008A80049462246B9461026DDF81C800F46039CAF
:1008B80003E0103D102D40F36B8101331032072BFC
:1008C800CAE90076CDE920320AF1080AF1DD1FAA4B
:1008D8002146404601F05EF900287FF42CAE0DF168
:1008E800B00ADDE92032E4E7099C0026049B54F8AD
:1008F800045B06918DF85B60002D00F09A84002B54
:10090800C0F2F3841A463146284602F0F7FE9DF8F5
:100918005B30002800F07387421B089222EAE272DB
:100928000292002B00F0ED84013204960292CDE988
:1009380009461CE6FFFFEF7F84C4000880C4000856
:10094800F8C10008C0C4000847F63002099B0691A8
:10095800ADF85C20002253F8040B8DF85B20049A54
:10096800002AC0F24184049A2BF0800552EA00065E
:1009780045F0020500F0CA840993AB460223B74A42
:100988004FF0780802932CAD00F00F030009D35CF8
:1009980005F8013DF8D12CAB5B1B1A460893049B64
:1009A8009342B8BF1346029A002A01F065800233C9
:1009B800DDE920C402931BF084032146624600F05F
:1009C800B7849DF85B200A90002A3FF4F1AD022617
:1009D800D9E51BF01002069100F0E7820498002385
:1009E800099A00288DF85B3052F8043BC0F2F28473
:1009F80018432BF0800100F0B3838B4609922CAD8D
:100A080003F00702DB08294602F1300205F8012D40
:100A1800F6D1302A00F097841BF0010F00F0938480
:100A28000A9330230239049A05F8013C2CAB0D4691
:100A38005B1A9A420893B8BF1A46029297E51BF0D0
:100A4800100F00F0A982099B059A1B681A60099B80
:100A580004330993A4E40022099B069122AD1146B0
:100A68008DF85B20049253F8042B0A910993012313
:100A78008DF888200893029379E54BF0100B0691C6
:100A88005BE64BF0100B0691A8E74BF0080BB4E4BB
:100A98002B238DF85B30B0E44BF0010BADE49DF8EF
:100AA8005B30002B7FF4A9AC20238DF85B30A4E4E5
:100AB800099B4BF0100B0691191D0BE64BF0800BB0
:100AC8009BE417F8018BB8F12A0F00F0A087A8F172
:100AD8003003092B00F2D486002202EB820217F8B9
:100AE800018B03EB4202A8F13003092BF5D942EA46
:100AF800E273049383E4069B029A9E1A002E7FF702
:100B08006BAD102E209ADFF858912ADD5146204609
:100B1800BA464C462F461023039DDDF81C9002E090
:100B2800103E102E18DD01321030072AC1E90043AB
:100B3800CDE9202001F10801F2DD1FAA2946484627
:100B480001F028F800287FF4F6AC103E2CA91023F9
:100B5800102EDDE92020E6DC3D46A1465746044636
:100B68008A4601323444CAF80090072ACAF8046059
:100B7800CDE9202400F3AA840AF1080A2CE51FAA6B
:100B88000399079801F006F800283FF452ADD2E423
:100B980014463A464F46914601332C44CAF8009011
:100BA800072BCAF80450CDE920347FF72CAD1FAAD3
:100BB8000399079800F0EEFF00287FF4BCAC219C55
:100BC8000DF1B00A21E50B9B0134209E0AF10808BB
:100BD800012B06F1010640F365810123072ECAF8AF
:100BE8000050CAF80430CDE9206400F3DF830E9B7F
:100BF80001360F9A1C44072EC8E90023CDE920646A
:100C080000F3C78308F108080B9B002203F1FF3AA1
:100C18000023DDE90C0106F0BDFA002840F05D81F3
:100C2800013601355444C8F804A0072EC8F800500E
:100C3800CDE9206400F3448108F10808109B0136CF
:100C48001C44C8F80430072E1AABCDE92064C8F854
:100C58000030ACDC08F1080AD7E400BFA4C40008DF
:100C6800F8C100081FAA03990798119300F092FF92
:100C780000287FF460AC219C0DF1B00A119BA8E418
:100C88001FAA03990798119300F084FF00287FF4A6
:100C980052AC219C0DF1B00A119B86E4102D209BCB
:100CA800DFF8E09727DD4A461026B946DDF81C80B4
:100CB800DDF80CB0174602E0103D102D18DD0133A9
:100CC8001034072BCAE90076CDE920340AF1080A66
:100CD800F2DD1FAA594640460DF1B00A00F05AFF4E
:100CE80000287FF428AC103D102DDDE92034E6DC27
:100CF8003A464F46914601332C44072BCAE90095E2
:100D0800CDE920347FF78AAC1FAA0399079800F031
:100D180041FF00287FF40FAC219C7FE4189900293B
:100D280040F37383DDE90A329342A8BF1346002BD0
:100D380098460BDD1C44CAE90053209B21940133DB
:100D4800072B209300F32C850AF1080A0A9EB8F1B4
:100D5800000FA8BFA6EB0806002E00F37682189BAA
:100D68000B9A934280F24D820E9A0F991444CAE965
:100D78000012209A21940132072A209200F3D88485
:100D88000AF1080A0B9A0A99D31A561A9E42A8BF62
:100D98001E46002E0EDD209A0D443444CAF8046025
:100DA8000132CAF800502194072A209200F31785CF
:100DB8000AF1080A002EACBF9D1B1D46002D7FF7C7
:100DC80024AC102D209BDFF8C0967FF7E5AE49468E
:100DD8002246B9461026DDF81C800F46039C03E026
:100DE800103D102D7FF7D4AE01331032072BCAE91E
:100DF8000076CDE920320AF1080AF1DD1FAA214662
:100E0800404600F0C7FE00287FF495AB0DF1B00A0C
:100E1800DDE92032E4E7209A102EDFF8689628DD15
:100E2800D4461024BA4611934F46A946079D02E0BE
:100E3800103E102E18DD01321031072ACCE900745B
:100E4800CDE920210CF1080CF2DD1FAA03992846F0
:100E580000F0A0FE0DF1B00C00287FF46CAB103E42
:100E6800102EDDE92021E6DC4D46119BB946574698
:100E7800E24602F1010C7418CAF80090BCF1070FA1
:100E8800CAF80460CDE920C400F3A7829DF85B206E
:100E98000AF1080A002A7BD1002B3FF49DAB1346C8
:100EA800FFF786BB1BF0010F7FF497AE0123072ED7
:100EB800CAF80050CAF80430CDE920647FF7BEAE06
:100EC8001FAA0399079800F065FE00287FF433AB4A
:100ED8000DF1B008DDE92064B0E60B9B012B7FF72C
:100EE800ADAE112BDFF8A09540F30C8322461025F8
:100EF8004C46B946039F05E0AAF1100ABAF1100F53
:100F080040F3FD8201361032072EC8E90045CDE9CD
:100F1800206208F10808EFDD1FAA3946079800F09B
:100F280039FE00287FF407AB0DF1B008DDE9206237
:100F3800E2E71FAA0399079800F02CFE00287FF427
:100F4800FAAA219C0DF1B00AFFF74CBB53422D229F
:100F58008DF85B20049A002A01DB2BF0800B092B0B
:100F680000F29F8130338DF8AF30049B012BB8BF5E
:100F780001230293029B099101330293FFF7F7BB08
:100F88001BF0010F3FF441AB71E40993FFF735BA49
:100F98001E460023FFF7F7BA1BF0400F3FF453AD8E
:100FA800099B059A1B681A8051E5099951F8043B79
:100FB80009911BF0400100F0BA8204999BB28DF8A8
:100FC8005B200029FFF61BAD19432BF0800200F0CF
:100FD800BA82934613E5DDE90C0102460B4606F09A
:100FE8000BF9002840F0A784049B28F020065A1C1F
:100FF80000F0BD83472E03D1002B08BF01230493C3
:101008004BF48072DDE90C0111920029C0F2DF82F5
:101018004FF000099DED0C7B8DED147BB8F1650F49
:1010280000F03F8300F3B483B8F1450F00F0398333
:101038001DAB049A02210798019319AB9DED140B7F
:10104800009318AB02F018FD1BF0010F054640F0A5
:10105800E9821D9B1B1A0B93189B0A930A9BDE1CA3
:1010680003DB049A9A4280F27183A8F102080A9B72
:101078008DF86880591E00291891C0F221842B230D
:1010880009298DF8693040F312840DF17B0CDFF8E3
:10109800FCE36446AEFB01360A462046013CF608EE
:1010A800632A06EB8603A1EB4303314603F13003C1
:1010B80000F8013CEEDC831E3031634504F8011C66
:1010C80080F0D0840DF1690213F8011B634502F822
:1010D800011FF9D1F0331AAA6B44843B1B1A9B1ADF
:1010E80010930B9A109B012A1344089340F30A8427
:1010F800089B0E9A1344002208930A9223EAE3738A
:101108000293B9F1000F00F00683029BDDF844B0AA
:10111800013302932D238DF85B3000230493FFF7EE
:1011280026BA09981BF0400150F8042B00F00E82F3
:10113800049992B28DF85B3000291346FFF60BAB89
:101148000A432BF0800B02927FF405AB0CE2099B5B
:101158001BF0400F1A6818BF12B21346FFF7BEBA49
:101168005B468B46099213F00102029200F02B8134
:1011780030230DF1AF0508928DF8AF3000230493AA
:101188000A93FFF7F4B92CAD0492099008920A92D9
:101198000292FFF7ECB9B74A0691099B1BF0100FB2
:1011A80053F8040B099303D11BF0400F18BF80B20A
:1011B8001BF00103029300F0DA80002800F0688138
:1011C80030238DF85D808DF85C3000238DF85B301E
:1011D800049B002BC0F2F5812BF0800343F0020B37
:1011E80002230293FFF7CFBB099302234BF0020BB4
:1011F800A14A4FF078080293FFF7C5BB9E4A0691B3
:10120800CBE71BF0010F7FF4AFAD0A99D31A561A3A
:101218009E42A8BF1E46CDE51FAA0399079800F075
:10122800B9FC00287FF487A9219C0DF1B00AFFF7CB
:101238002CBB062B2A46049528BF06238F4D0994FC
:10124800029308930A92FFF792B9102E209BDFF8B9
:10125800389240F3A7811A464B462146B946049571
:101268004FF01008079C1F46039D03E0103E102E08
:1012780040F3928101321031072ACAE90078CDE99A
:1012880020210AF1080AF1DD1FAA2946204600F0AC
:1012980081FC00287FF44FA90DF1B00ADDE9202177
:1012A800E4E72D242CADDFF8E4C1ACFB03211E4696
:1012B800C908092E01EB8102A3EB42020B4602F199
:1012C800300205F8012DF0D82CAB5B1B1A460893A9
:1012D800049B9342B8BF134602930CB101330293A7
:1012E800002309900A93FFF742B9284602F0BCFA96
:1012F8009DF85B3020EAE07208900292002B7FF4A0
:1013080013AB0493CDE90943FFF731B9DDE920C4F4
:101318001BF0040021466246049040F07081099356
:10132800AB46049B2CAD4FF0780808930223029338
:10133800069B02981E1A002E11DC9DF85B3093B9AB
:101348000A93FFF735B900222CAB0A925B1B049A6B
:1013580008939A42B8BF1A460292FFF708B90023C9
:101368000A93022358E500230A93FFF730BB049B36
:101378000299002B8DF85B10FFF605AB03432BF0A9
:10138800800B7FF400AB2CAD049108910A91FFF714
:10139800EEB81FAA0399079800F0FCFB00287FF419
:1013A800CAA80DF1B008DDE920642DE41FAA03994D
:1013B800079800F0EFFB00287FF4BDA80DF1B008F6
:1013C800DDE9206413E4029B2CAD089304930A938F
:1013D800FFF7CDB80992FFF712BB1FAA0399079828
:1013E800119300F0D7FB00287FF4A5A89DF85B2097
:1013F800219C119B002A00F091801E46DDF880C0D8
:1014080003460DF1B00AFFF7BEB8209B01341C4A11
:1014180001332194CAF800200122072B2093CAF82F
:10142800042000F3DB800AF1080A0B9B0B4300F051
:10143800C4810E9B0F981A19CAE90003209B2192B8
:101448000133072B209300F395810AF1080A00293C
:10145800C0F2E7810B990133CAF800508C18072BAA
:10146800CAF80410CDE920347FF7CDA8FFF79FBB59
:10147800002417E790C40008A4C40008B8C40008F2
:10148800C0C40008E8C10008F8C10008CDCCCCCC25
:10149800049B8DF85B00002B03DB2BF0800B00F026
:1014A800BB800290FFF76FBA1FAA0399079800F054
:1014B80071FB00287FF43FA8219C0DF1B00AFFF7CB
:1014C800D1B9079801F048FCFEF744BF1FAA039959
:1014D800079800F05FFB00287FF42DA8219C0DF1F0
:1014E800B00AFFF779B8221E2B4604952CAD18BF19
:1014F80001220991089302920A93FFF738B84F46E0
:10150800A146144601365444C8F80090072EC8F87E
:1015180004A0CDE920647FF78FABD1E4002B6AD01B
:101528001346DDF880C00DF1B00AFFF741B8049A00
:101538008DF85B10002AFFF662AA04992BF080024E
:1015480019437FF446AD5B4693460CE68DF85B1075
:10155800134604990029FFF6FEA804992BF0800B86
:101568000A4302927FF4F7A82CAD099004920892DE
:101578000A92FEF7FCBF2D23B8F1470F04948DF8AB
:101588005B304FF00303089300F385800423AC4DD0
:101598000A940293FEF7EBBF13463A46049D4F4662
:1015A8000C46914601333444CAF80090072BCAF818
:1015B8000460CDE9203400F3A1800AF1080AFFF79E
:1015C800CEBB02234BF0020B0293FFF7DCB901F10B
:1015D80000434FF02D09149015931FE51FAA039996
:1015E800079800F0D7FA00287EF4A5AF18990DF1F6
:1015F800B00A219C19E70DF1B00AFEF7EDBFCDE95D
:1016080008630223AB464FF078082CAD02930423FD
:1016180004960A96FEF7CCBF2CAD08930A93029362
:10162800FEF7A5BF049B0022C4180023DDE91401BE
:1016380005F0B0FD002840F078811D9BA34206D23A
:1016480030215A1C1D9219701D9B9C42F9D8189A7A
:101658005B1B472E0A920B933FF400ADB8F1660F5F
:101668007FF405AD0A990BF00103049A002943EAB7
:10167800020340F3E381002B40F0B8810A9B4FF04E
:101688006608029308933CE51FAA0399079800F09F
:1016980081FAFEF750BF04236A4D0A940293FEF7BD
:1016A80066BF049B022101330B931DAB0B9C07986B
:1016B800019319AB2246009318AB9DED140B02F071
:1016C800DBF9B8F1660F0546044440F05B812B78DE
:1016D800302B00F04981189B1C4400220023DDE9CF
:1016E800140105F057FD002840F013811D9B9C4212
:1016F800A6D85B1B0B93189B0A93B3E71FAA039901
:10170800079800F047FA00287EF415AF219C0DF1E8
:10171800B00AFFF724BB9DF85B30002B7BD0029BFF
:10172800DDF844B00133CDF810900293FEF71FBFE7
:101738001FAA0399079800F02DFA00287EF4FBAE43
:10174800189B0DF1B00A219CFFF71CBBDDE90A329A
:101758009342C0F299801BF0010F0A9B40F02F8141
:1017680023EAE3724FF0670808930292C9E406235C
:10177800049345E41FAA0399079800F00BFA002880
:101788007EF4D9AE18990DF1B00ADDE920325EE693
:10179800B8F1660F7FF44CAC049B03210B9384E7EC
:1017A8001FAA0399079800F0F5F900287EF4C3AE44
:1017B800219C0DF1B00AFFF7C9BA1BF0010F3EF4E6
:1017C80024AF0E9B0F991A19CAE90013209B219286
:1017D8000133072B2093CDDC0AF1080A3AE61FAA49
:1017E8000399079800F0D6F900287EF4A4AE189B58
:1017F8000DF1B00A0B9A219CD31AFFF7DBBA0994B2
:10180800002B00F08B80049B0A905A1C08930490CC
:101818000292FEF7ACBEDDF844B0CDF81090FEF7AA
:10182800A6BE4E421031DFF8209053DA19464B46D7
:101838001024B946DDF81C802F461D4609E000BF7C
:1018480080C4000884C40008F8C10008103E102EA7
:101858003BDD013110320729CAE90054CDE92012D5
:101868000AF1080AF2DD1FAA0399404600F092F92E
:1018780000287EF460AE0DF1B00ADDE92012E5E73C
:1018880000230493FEF7BBBD0E9A0B9B13440A9AE0
:10189800002A089340F39D8023EAE3734FF067081A
:1018A80002932EE44FF0FF330593FEF749BE302331
:1018B80030318DF86A3004238DF86B10109310E4E2
:1018C800C3F101012D23FFF7DBBB0B4629463D463B
:1018D8004F46894601333244CAF80090072BCAF8AC
:1018E8000460CDE920327FF777AF1FAA03990798E4
:1018F80000F050F900287EF41EAE0DF1B00ADDE9C3
:101908002032A7E51BF001020A927FF4F1ABFFF742
:10191800F5BB631B0B93189B0A93A3E6049A0A93DF
:10192800089202920493FEF722BE189B0A93049B26
:101938000B93FFF793BB0D9B2BF0800B13F0004329
:101948000A936DD02D230322B8F1470F8DF85B3031
:101958004FF000030892049340F3888004224C4D12
:101968000A930292FEF703BE00220023DDE9140168
:1019780005F010FC002845D0189B1C440A93631BF3
:101988000B936FE600220023DDE9140105F002FC49
:1019980028B91D9B9C423FF653AE5B1B0B93189BCB
:1019A800472E0A937FF463ABFFF758BB032200234B
:1019B80008920422049302920A93FEF7D8BD0E9A65
:1019C8004FF067081344089323EAE3730293FFF781
:1019D80098BB0A9B4FF06708089AC3F101031A44A1
:1019E80022EAE27308920293FFF78BBB13460E9A22
:1019F8004FF0660813440B44089323EAE3730293F9
:101A0800FFF77FBB0B9BC3F10103189364E6099BA7
:101A180053F8042B42EAE27209930492FEF7EDBCF4
:101A2800B8F1470F9DF85B30CCBF194D194D3BBB42
:101A38000493032308930293FEF799BD33B9012356
:101A48004FF0660802930893FFF75BBB0E9B4FF0BD
:101A58006608049A01331A4422EAE2730892029350
:101A6800FFF74FBB02231093FFF73BBB0422094D3E
:101A78000A930292FEF77BBD0A920293FEF777BDA6
:101A8800002304930323089304230293FEF76FBDF6
:101A98008CC4000888C4000810B4044C13460A46D5
:101AA800014620685DF8044BFEF73EBC7801002033
:101AB800F0B5ADF26C4D0D4607461AA96C4600917B
:101AC8000491A98921F00201ADF80C104FF480614E
:101AD80002910591696E1991E989ADF80E10E969CD
:101AE8000791696A0991002106916946FEF71CFC75
:101AF800061E07DB6946384601F00AF8002818BFB9
:101B08004FF0FF36A3895B0603D5AB8943F040034A
:101B1800AB8130460DF26C4DF0BD00BF2DE9F84F9A
:101B28004B6E90469C042DD59368126843B30D46BE
:101B3800064602F1080959E9022A5FEA9A0715D010
:101B4800A2F1040B002401E0A7420DD02A465BF85D
:101B5800041F3046013401F071FB431CF4D100230B
:101B6800C8E90133BDE8F88FD8F808302AF0030A2D
:101B780009F10809A3EB0A03C8F80830002BDAD1E9
:101B88000020ECE701F010F90023C8E90133BDE8B3
:101B9800F88F00BF10B4946814B15DF8044BBDE72A
:101BA800204654605DF8044B704700BF2DE9F04FA4
:101BB800ABB01C4693460391CDE9063018B1436B90
:101BC800002B00F002860399B1F90C20960406D484
:101BD8004B6E42F4005223F400538A814B6615077A
:101BE80040F1B480039B1B69002B00F0AF8002F02A
:101BF8001A020A2A00F0B9800DF1680A0023D146BA
:101C0800CDF834A00493CDE90E339BF800305C4640
:101C1800252B1AD0CBB1254614F8013F0BB1252B43
:101C2800F9D1B4EB0B0610D00E9B0F9A0133324456
:101C3800072B0E930F92C9E900B600F3A58009F1AE
:101C48000809049B334404936B78002B00F0A780A9
:101C58004FF0FF3300260134029337464FF000035C
:101C6800A3468DF82F301BF8013BA3F12002582A18
:101C780000F2A280DFE812F09F02A000A0009C0200
:101C8800A000A000A000A000A000A000FC009802F6
:101C9800A0000401B002A000AD025900590059008B
:101CA800590059005900590059005900A000A000D6
:101CB800A000A000A000A000A000A000A000A0001C
:101CC800A802A000A000A000A000A000A000A00002
:101CD800A000A000A000CF01A000A000A000A000CC
:101CE800A000CC01A000A000CD04A000A000A0008E
:101CF800A000A000A000A000A000A000A000BE01BD
:101D0800C500A000A000A000C902C500A000A00056
:101D18006700A0008D025C0292016700A0006201CA
:101D2800A0000701A000A000EF04A3F130020026E4
:101D380006EB86061BF8013B02EB4606A3F13002D0
:101D4800092AF5D991E747F010078CE70399079816
:101D580001F0BEF9002840F09885039BB3F90C20E8
:101D680002F01A020A2A7FF447AF039BB3F90E3038
:101D7800002BFFF641AF23465A46039907982BB02C
:101D8800BDE8F04F00F0B8BD002A00F0A7830DAA07
:101D980003990798FFF7C2FE28B9D14651E70F9B70
:101DA800002B40F05785039B9B895B0600F16D85EE
:101DB80004982BB0BDE8F08F002BF0D08DF84030A0
:101DC800002310AD8DF82F3001230593019317F0F0
:101DD8008404DDE90E2C1346604602F1010140F04F
:101DE8009F83019AB41A002C00F3D9849DF82F2000
:101DF800002A00F04F8300230A461C4602930893EA
:101E080039E1069BF80603F1040E734640F1B983E5
:101E1800069A9E4612681346002AC0F26783029902
:101E28009DF82F000029C0F20685114327F080078E
:101E380040F00185031E5546029118BF012317F093
:101E4800840405910193DDE90E3C604603F101022B
:101E580040F008810199741A002C37DC9DF82F1086
:101E6800002900F01A830024CDF818E0089402E154
:101E7800069B53F8046B002E80F269837642069322
:101E880047F00407EFE617F0100224D0029A002367
:101E9800DDF818E0002A8DF82F305EF8043B28DBC7
:101EA8001A4327F0800724D117F08401DDE90E3C9E
:101EB8000291604603F1010240F04C8302995546B5
:101EC800019105910199741A002CC7DD0022CDF803
:101ED80018E00892E9E3DDF818E017F040015EF831
:101EE800043B00F089848DF82F209BB2029A002AC7
:101EF800D6DA092B40F21E8300205546DFF82CC69F
:101F0800ACFB03241946E408092904EB8402A3EB7B
:101F18004202234602F1300205F8012DF0D8AAEB5F
:101F28000503029A9A420593B8BF1A4601920028FF
:101F380000F08F80019B013301938AE0DDF818805F
:101F48000021029B58F8045B8DF82F10002D00F03B
:101F58004084002BC0F291831A46284601F0CEFB3C
:101F68009DF82F30002800F07C84421B059222EA5D
:101F7800E2720192002B00F08C830132019217F07B
:101F88008404DDE90E3C604603F1010200F0A384FD
:101F98000023CDF81880029308936CE047F63003CD
:101FA800069CADF83030002354F8042B8DF82F3000
:101FB800029B002BC0F2FD82029B27F0800553EAAA
:101FC800020145F0020540F0128417F00407DDE92C
:101FD8000E3C0297604603F1010200F02484084693
:101FE80002232F4605910694114655460424019371
:101FF800029053E0069B002210AD8DF82F2053F875
:10200800042B069301238DF8402005930193DEE607
:1020180047F010073AE747F0100702990023DDF868
:1020280018E000298DF82F305EF8043BC0F2938049
:10203800194327F0800240F0BA823B46174613F056
:1020480001031A46019340F0E380019B554605932E
:10205800029317F08404DDE90E3C604603F10102A7
:102068003FF4F8AE9DF82F10002900F0D383002329
:10207800CDF818E008930CF1010C0DF12F030121A4
:10208800072AC9F80030C9F80410CDE90E2C00F36E
:10209800878109F108095118089BEBB10CAB0CF1C9
:1020A800020C0729C9F800304FF00203CDE90E1CD5
:1020B800C9F8043040F38E81BCF1000F00F01282A1
:1020C8000DAA03990798FFF729FD00287FF46BAE46
:1020D800D146DDE90E2C511C802C00F0B080029B0B
:1020E80005981C1A002C00F30B81059A0729C9F8DA
:1020F800005002EB0C03C9F80420CDE90E1300F3DD
:10210800908009F108097A0704D5019AB41A002CBD
:1021180000F36D81049A01998E42ACBF921952184E
:102128000492002B40F033810023D1460E936CE5D6
:1021380017F010027FF471AFDDF818E017F04001D6
:102148005EF8043B00F0278202999BB28DF82F209D
:102158000029BFF66DAF554603F00702DB08294694
:1021680002F1300205F8012DF6D1302A00F0AD81D8
:10217800F80740F1AA8102393023029A05F8013C98
:10218800AAEB01030D469A420593B8BF1A4601927D
:102198005FE7FB0640F1ED81069B049A1B681A6015
:1021A800069B0433069330E52B238DF82F305AE530
:1021B80047F0010757E59DF82F30002B7FF453AD0A
:1021C80020238DF82F304EE5069B47F01007043387
:1021D8001EE647F0800746E51BF8013B2A2B00F076
:1021E8006D83A3F13002092A00F24283002101EB3A
:1021F80081011BF8013B02EB4101A3F13002092ADE
:10220800F5D941EAE17202922FE547F040072AE545
:1022180030230DF1670505928DF86730002302938E
:1022280017E7002B00F0DB800DAA03990798FFF74A
:1022380075FC00287FF4B7AD0F9BD14663E7019B7F
:10224800F41A002C7FF74BAF102C40F32383B64BC6
:1022580049460896A94609974FF010086646079D13
:102268001F460EE003992846FFF758FC00287FF424
:102278009AAD5146DDE90E2602F1010E103C102CF4
:1022880016DD501C103602F1020E07280246C1E97D
:102298000078CDE90E0601F10801EFDD0DAA002E48
:1022A800E0D1103C4FF0010E32465146102CE8DCCC
:1022B8004D46B4463B4689467046089E099FA4444D
:1022C8000728C9F80030C9F80440CDE90E0C40F3DE
:1022D8004B81BCF1000F00F0A2820DAA0399079868
:1022E800FFF71CFC00287FF45EAD029BD1460598E1
:1022F8001C1ADDE90E2C002C02F101017FF7F5AE66
:10230800102C894B35DDCE460296994608954FF03C
:1023180010082546039E6346079C0BE0FFF7FEFB6B
:10232800D64600287FF43FADDDE90E23511C103D51
:10233800102D18DD501C7C4910330728CEE90018F1
:10234800CDE90E0302F102010EF1080E0246EEDDA0
:102358000DAA31462046002BE0D1103D01211A4636
:10236800D646102DE6DC2C469C46029E4B46089D20
:10237800F146A4440729C9F80030C9F80440CDE95A
:102388000E1C00F3908009F108090131ADE60DAA91
:1023980003990798FFF7C2FB00283FF4C5AE02E592
:1023A800BCF1000F0CD00DAA03990798FFF7B6FBF4
:1023B80000287FF4F8ACD146DDE90E2C511C6BE601
:1023C800089B002B00F0E4800223D1469C461B9317
:1023D8000CAB1A930A4609F1080901317CE6790722
:1023E8000E934FD5019AB41A002C4BDDD146102C10
:1023F8000E9940F34682DFF8388118461025079F6A
:102408004346B0461E460EE003993846FFF786FB62
:1024180000287FF4C8ACD146DDE90E1001F1010CAB
:10242800103C102C16DD4A1C103001F1020C072A52
:102438001146C9E90065CDE90E2009F10809EFDD6B
:102448000DAA0028E0D1103C4FF0010C0146D146FE
:10245800102CE8DC32460346464660469046234444
:102468000728C9E90084CDE90E037FF753AE4BB1C5
:102478000DAA03990798FFF751FB00287FF493AC46
:102488000F9B47E6049B019A9642ACBF9B199B1889
:10249800049349E6DDF818E002921A468446591C6E
:1024A800CDF818E01BE6BCF1000F00F07C810DAA06
:1024B80003990798FFF732FB00287FF474AC0E9954
:1024C800D146DDF83CC001310FE6AAEB0503029ABC
:1024D8009A420593B8BF1A460192BAE5D1460E92C0
:1024E800FFF7AFBB01216246D146F5E55342029A98
:1024F8002D20002A8DF82F00C0F2AF80092B27F07D
:1025080080073FF6FAAC30330DF167058DF8673078
:10251800029B012BB8BF012301930123059309E511
:1025280000230293D8E500BF18C20008CDCCCCCC5C
:1025380008C2000830338DF86730029B012BB8BF02
:102548000123019301230DF16705059381E50693A6
:10255800FFF789BB11461A4600235546CDF818E007
:102568000593CDE90133BAE509F10809411C024692
:10257800B5E57E067FF510AE069B049A1B681A80A7
:102588000EE6069B79061A6848BF12B2134643E462
:102598006246D146A0E5029A8DF82F10002AFFF670
:1025A800DAAD029927F0800219433FF446AD174689
:1025B800D1E547F002070220B8490694554602F0D3
:1025C8000F031209CB5C05F8013DF8D1AAEB05030E
:1025D800029A9A420593B8BF1A460192002800F061
:1025E8007681019B17F0840403F102030193DDE96E
:1025F8000E3C604603F101024FD10199741A002C78
:1026080051DC9DF82F40002C4BD000240223089366
:1026180031E5A3490698FD0650F8042B069002D42C
:102628007C0648BF92B217F0010000F09380002AA0
:1026380000F0C1808DF83130302302208DF8303021
:1026480000238DF82F30029B002BA8BF27F08007AE
:1026580047F00207B2E79149DCE7092B3FF64DAC9A
:1026680030338DF8673001230193019B0DF1670525
:102678000133019301230593EBE4284601F0F4F8B4
:102688009DF82F3020EAE07205900192002B7FF42C
:1026980074ACCDF81880FFF79ABB9DF82F30002B4B
:1026A800B4D11146FAE402220892102C194640F3DC
:1026B800E380DFF8F8814A460996A9461023454683
:1026C8008C46079EDDF80C800EE03046FFF726FAB0
:1026D800524600287FF467AB1023DDE90EC00CF1E9
:1026E800010E103C102C18DD0CF1010110300CF11A
:1026F800020E07298C46C2E90053CDE90E1002F1FB
:102708000802EEDD0DAA41460028DED1103C4FF04C
:10271800010E84465246102CE6DCA846099E4D461A
:10272800914604EB000CBEF1070FC9F80080C9F808
:102738000440CDE90EEC1CDC09F108090EF1010298
:102748009DF82F404CBB089B1146002B7FF4A6AC8C
:102758007246C4E4029B8DF82F00002BFFF62EAFC3
:10276800134327F080077FF429AFDDF818E0FFF75F
:102778009BBBBCF1000F36D00DAA03990798FFF751
:10278800CDF900287FF40FAB9DF82F40D146DDE945
:102798000EEC0EF10102002CD5D000246BE40022CF
:1027A8000292089281E7059B0122D1461A951B9354
:1027B8000F930E92A5E4029B8DF82F20002B02DBCD
:1027C80027F08007D1D01046F8E600F0C5FAFFF7E9
:1027D800FAB9062B334DCDF8188028BF062301938C
:1027E8000593FFF7F4BA0122E646D146A8E72F463B
:1027F80002202A490694E1E6029A8DF82F10002A51
:10280800FFF677AB029A27F080071A433FF44CABE8
:10281800FFF76FBB1146CDF818E01A465CE40121BA
:102828006246D1465BE402992F46069455460591C7
:1028380002210191E1E6092A3FF65FAB029B3032A3
:10284800012B8DF86720B8BF0123019300287FF47E
:102858000CAF77E60DAA03990798FFF75FF9FFF722
:10286800A2BA2BB3029B5A1C05930192FFF787BBB0
:1028780000220292FFF7F9B903F1010EDFF82C806C
:102888004FE7481CDFF82480E9E54FF0FF33049355
:10289800FFF78EBA0846044B11E500BFA4C4000830
:1028A80090C40008B8C4000818C2000808C200088C
:1028B800029BCDE905380193FFF789BA069B53F8C7
:1028C800042B42EAE27206930292FFF7CCB9DDF8D4
:1028D80018E0FFF7BEBB1146CDF81880FFF781BAA4
:1028E80010B4044C13460A46014620685DF8044BB0
:1028F800FFF75CB978010020F0B5ADF26C4D0D46DC
:1029080007461AA96C4600910491A98921F0020191
:10291800ADF80C104FF4806102910591696E199120
:10292800E989ADF80E10E9690791696A09910021F2
:1029380006916946FFF73AF9061E07DB69463846ED
:1029480000F0E6F8002818BF4FF0FF36A3895B06B1
:1029580003D5AB8943F04003AB8130460DF26C4D93
:10296800F0BD00BF30B504468BB008460D4600F0F8
:102978007BFF154B01220695089306AB8518099233
:1029880003930222636BA1680790CDE90425ABB1DC
:10299800B1F90C309A0406D44A6E43F4005322F479
:1029A80000528B814A6603AA204600F0FDF90028F0
:1029B8000CBF0A204FF0FF300BB030BD204601910C
:1029C80000F0CAF90199E3E7C4C40008024B0146C4
:1029D8001868FFF7C7BF00BF78010020B1F90C20C5
:1029E8002DE9F04115070C4680464ED4496842F45B
:1029F80000630029A38163DDA66A002E42D000216E
:102A080012F48052D8F80050C8F8001065D101239C
:102A1800E1694046B0470246501C6CD0B4F90C300E
:102A2800A66A590705D56368D21A236B0BB1E36B05
:102A3800D21A0023E1694046B047421CB4F90C3071
:102A48004DD1D8F800101D2940D8304ACA40D707C0
:102A58003CD523F40062DE04A2814FF000026260DC
:102A68002269226001D5002943D0216BC8F80050A3
:102A780041B104F14003994202D0404602F056F8B1
:102A8800002323630020BDE8F0810E69002EF9D0F1
:102A980092070D680E600CBF4B690023AD1B8B605D
:102AA8000BE02B463246E1694046676AB847B0F109
:102AB800000CA5EB0C05664406DD002DF1DCE1E712
:102AC800E16B002998DCDDE7B4F90C3043F04003F2
:102AD8004FF0FF30A381BDE8F081226DA1E723F418
:102AE8000062DB04A2814FF000026260226922606A
:102AF800BBD52065B9E7D8F80030002B8ED01D2B48
:102B080001D0162BE0D1C8F80050BBE701004020E7
:102B180010B5044682B008B1436B53B1B1F90C004B
:102B280008B902B010BD204602B0BDE81040FFF75A
:102B380055BF019100F010F90199EFE7A0B138B540
:102B48000C4B04461D680DB16B6B4BB1B4F90C000E
:102B580000B938BD21462846BDE83840FFF73EBFDA
:102B6800284600F0F9F8F1E7034A0449044800F060
:102B78008DBA00BF7801002000000020192B000842
:102B88008001002000207047024A0349034800F0F2
:102B98007DBA00BF00000020DD5E00088001002033
:102BA8000C4B4168994210B5044601D003F092F9E4
:102BB800A168094B994202D0204603F08BF9E168DD
:102BC800064B994204D02046BDE8104003F082B974
:102BD80010BD00BFDC06002044070020AC07002021
:102BE800002070472DE9F8432A4900252A4C042380
:102BF8000822DFF8B890C4F8381104F15C002946BF
:102C0800DFF8AC80254F264EE36025606566A56138
:102C1800C4E90155C4E9045500F0C6FB214B08225C
:102C2800294604F1C40063672567C4F8CC50C4F88A
:102C38008050E662C4E90749C4E90987C4E91A551E
:102C4800C4E91E5500F0B0FB04F1680329460822C8
:102C5800C4F8843004F59670134BC4F8D850C4F8FF
:102C6800DC30C4F83451C4F8E850C4E92298C4E907
:102C78002476C4E93455C4E9385500F095FB04F1CD
:102C8800D003C4E93C98C4E93E76C4F8EC30BDE80A
:102C9800F88300BF912B0008DC0600204963000878
:102CA800716300080900010012000200E1620008D7
:102CB80009630008F8B5254B0646D3F83831002BD0
:102CC8003DD0234FD7E90134013B04D51DE05A1C00
:102CD80004F1680419D0B4F90C50013B002DF6D169
:102CE8001C4B0822294604F15C006566E3602560F8
:102CF800A561C4E90155C4E9045500F055FBC4E9D0
:102D08000C55C4E911552046F8BD3D680DB12F4654
:102D1800D8E74FF4D671304601F0FCFF044688B17D
:102D2800042305600C302946254640F8083C4FF43A
:102D3800D072A06000F038FB3C602F46C2E7FFF776
:102D480051FFBEE70C2338603360DCE7DC06002067
:102D5800000000200100FFFF436B03B17047044BE4
:102D6800044AD3F838314263002BF7D13AE700BF61
:102D7800DC060020A92B0008704700BF704700BF81
:102D8800024A0020024900F081B900BF000000207B
:102D98008D2B0008024A0020024900F077B900BFD5
:102DA80000000020E92B00089368002B00F0B78092
:102DB800B1F90CC01CF0080F2DE9F04F174683B08D
:102DC80080460C4627D00B692BB31CF002033D68E4
:102DD8002DD04FF0000ADFF8B0B2B94656465E452E
:102DE80033465246404628BF5B46002E00F0868098
:102DF800E169676AB847002840F38980D9F8083044
:102E08008244361A1B1AC9F80830002BE7D1002073
:102E180003B0BDE8F08F2146404600F059F900287C
:102E28007AD1B4F90CC03D681CF00203D1D11CF072
:102E3800010976D14E460097002E5BD01CF4007F26
:102E48002068D4F808B000F0B280B3455A4600F2C2
:102E5800E0801CF4906F33D06369216913EB43035E
:102E6800A0EB010B48BF01334FEA630A0BF10103E2
:102E780033445246534501D99A461A461CF4806F8A
:102E880000F0E5801146404601F044FF002800F0BC
:102E9800F4805A462169019000F070FCA289019BD8
:102EA80022F4906242F08002A28103EB0B002361BE
:102EB8003246AAEB0B03B346C4F814A0A360206003
:102EC8004946019200F0F2F9A368019AB246A3EBD1
:102ED8000B01236800261344A1602360009AD144A3
:102EE8009368A3EB0A039360002B90D0B4F90CC04D
:102EF800002EA3D1D5E9009608359DE7D5E900A6AF
:102F080008356CE721464046FFF702FE70B3B4F976
:102F18000C3043F04003A3814FF0FF3078E70020E6
:102F280070471E46BA46994618461F4600955EB336
:102F3800002831D04A46A168B2426369206828BF98
:102F4800324603EB010B2169884201D95A4570DCEE
:102F5800934261DC3A46E1694046656AA847B0F1A8
:102F6800000BD4DDB9EB0B09CCD00120DAF808301E
:102F78005F44A6EB0B06A3EB0B03CAF80830002B43
:102F88003FF445AF002ED3D1009A56681346083255
:102F98000092002EF8D01F6832460A21384600F009
:102FA800ADFB002866D00130A0EB0709C2E7236912
:102FB800834216D36269B24213D86FF00043E169C5
:102FC8004046676AB34228BF334693FBF2F302FBDD
:102FD80003F34A46B847B0F1000A98DDA6EB0A06A3
:102FE8007CE7B345DA46494628BFB246524600F068
:102FF8005DF9A3682268A3EB0A035244A360226028
:10300800002BEBD121464046FFF782FD0028E5D092
:103018007DE7B346324653E73946019200F046F958
:10302800019AA36893469B1AA360236813442360FC
:1030380098E739465A4600F039F923682146404650
:103048005B442360FFF764FD00288BD05FE74046B0
:1030580002F088FF034600287FF427AF2169404625
:1030680001F064FDB4F90C300C2223F08003C8F899
:1030780000204EE7721C91465DE70C22B4F90C3033
:10308800C8F8002045E700BF00FCFF7F2DE9F843A2
:103098004FF00009074688461646D6E90154013D17
:1030A8000FD4A389012B08D9B4F90E30214638462C
:1030B800013302D0C04749EA0009013D68346B1C5E
:1030C800EFD13668002EE8D14846BDE8F88300BF46
:1030D80038B53C4B05460C461B6813B15A6B002AA1
:1030E80057D0B4F90C3019070BD522699AB113F0EF
:1030F800010221D0636900225B42A260A361002023
:1031080038BDDA0655D558071BD4226943F00803A1
:10311800A381002AEBD103F42071B1F5007F26D1F9
:10312800D9073AD56169A2604942A1611A06E6D574
:1031380043F04003A38141E09B0716D46369A36071
:10314800DDE7216B51B104F14002914204D02846D9
:1031580001F0ECFCB4F90C30002222630021226952
:1031680023F02403C4E90021D0E7A260C7E7214681
:10317800284602F0A7F8B4F90C30226913F00101CF
:1031880012D0616900204942A060A161002ACDD017
:10319800B5E71846FFF7E0FDA3E79D0707D4616987
:1031A800A160002AC2D0AAE79807F9D4F7E7A2607D
:1031B800BCE7092243F040032A60A3814FF0FF30A7
:1031C80038BD00BF7801002070B582B006460D46B4
:1031D800144600F057F9012802D16B1EFE2B1CD9AA
:1031E80004F15C032A4601A9304600F06BFB431C3E
:1031F8001FD078B1A3689DF80410013B002BA36091
:1032080004DAA26993420BDB0A2909D023685A1C05
:1032180022601970284602B070BD8DF80450E9E7A5
:103228002246304603F0BCF80130F3D14FF0FF30AE
:10323800F1E7A38943F04003A381F7E7B2F90C3023
:1032480013F4005F0BD143F4005310B4546E938110
:1032580044F4005454665DF8044BFFF7B5BFFFF71C
:10326800B3BF00BF104B0A46014610B51C6882B0B8
:103278000CB1636B83B1B2F90C30980406D4506E6C
:1032880043F4005340F4005093815066204602B046
:10329800BDE81040FFF798BFCDE900022046FFF7D0
:1032A8005BFDDDE90012E6E77801002088420DD9D0
:1032B8008B1883420AD900EB020C5AB3624613F802
:1032C80001CD994202F801CDF9D170470F2A0DD8E6
:1032D80002F1FF3CF2B10CF1010C431E8C4411F8D1
:1032E800012B614503F8012FF9D1704740EA01032A
:1032F8009B07F0B50C460ED002F1FF3C03460CF1DB
:10330800010C013B8C4411F8012B614503F8012F96
:10331800F9D1F0BD7047A2F1100501F1200E01F1BD
:10332800100300F1100C25F00F05AE4453F8106C93
:1033380010330CF1100C4CF8206C53F81C6C4CF842
:103348001C6C53F8186C73454CF8186C53F8146CD3
:103358004CF8146CEAD101EB050C12F00C0F054483
:103368000CF1100105F1100302F00F050E4618D0FC
:10337800043DA0EB040E25F00304A4440CF1140C46
:103388000F6801EB0E0504312F606145F8D1043454
:1033980002F00302A119234402F1FF3C002AAED136
:1033A800F0BD2A46F8E700BF830730B546D0841839
:1033B800844604E003F8011B9D0704D09C46A445FD
:1033C8006346F7D130BD013A0244A2EB0C02032A4E
:1033D80029D9CCB20F2A04EB042404EB04442FD9D6
:1033E800A2F1100C03F110052CF00F0CAC44C3E94A
:1033F8000044C3E9024410336345F8D112F00C0FBE
:1034080002F00F0E18D02EF0030CAEF104051A4688
:103418009C4442F8044B6245FBD125F00304043375
:103428000EF003022344002ACCD0C9B21A4403F890
:10343800011B9342FBD130BD7246F4E70346C6E751
:103448009646E0E742B10C49104610B5144600F024
:103458004FF818B9094810BD084870470749204671
:1034680000F046F80028F5D00549204600F040F85D
:103478000028EFD0002010BDCCC40008C8C4000844
:103488007CC40008014B93F8280170470C00002009
:1034980041B110B50C460B49204600F029F818B97F
:1034A800094810BD084870470749204600F020F831
:1034B8000028F5D00549204600F01AF80028EFD07A
:1034C800002010BDCCC40008C8C400087CC4000893
:1034D800F030704700487047FC00002000487047F3
:1034E800FC000020014B1868704700BF78010020DD
:1034F80080EA010C1CF0030F37D110F0030C20F008
:10350800030021F0030150F8042B08BF51F8043BD5
:103518000ED08CF0030C6FF07F434FEACC0C23FAEB
:103528000CFC51F8043B42EA0C0243EA0C0300BFCE
:10353800A2F1013C9A4201BF2CEA020C1CF0803F28
:1035480050F8042B51F8043BF2D04FEA02604FEADE
:103558001222012828BFB0EB036F08BF1B0AF4D062
:1035680003F0FF03000EC01A704710F0030F0AD0D3
:1035780010F8012B11F8013B012A28BF9A42F4D018
:10358800A2EB030070474DF8045D50F8042B01F0DE
:10359800030521F0030151F8043B022D26D04DD834
:1035A80022F07F45B5EB132FA2F1013C2CEA020C67
:1035B8000DD11CF0803C08BF51F8043B0AD185EAC4
:1035C8000205B5EB036F0CD150F8042BE8E74FEA7E
:1035D80013235BE03CF07F4C54D10B784FEA126523
:1035E80054E04FEA126503F0FF034FE04FEA02454B
:1035F800A2F1013C4FEA15452CEA020CB5EB134F3A
:1036080018D11CF0803C08BF51F8043B07D185EA6B
:103618000205B5EB034F09D150F8042BE6E75FEA42
:103628000C4C2FD10B884FEA12452FE04FEA034389
:103638004FEA12454FEA134328E000BF02F0FF05A6
:10364800B5EB136FA2F1013C2CEA020C0DD11CF072
:10365800803C08BF51F8043B0AD185EA0205B5EB66
:10366800032F0AD150F8042BE8E74FEA13630DE063
:1036780012F0FF0F06D051F8043B4FEA122523F051
:103688007F4303E04FF0000020BC704705F0FF02C5
:1036980003F0FF00012828BF904204BF2D0A1B0A2F
:1036A800F4D0A2EB000020BC704700BF0F4B70B5F0
:1036B8000F4DAB42A3EB050607D0B610002401342A
:1036C80055F8043B9847A642F9D80A4D08F07CFD06
:1036D800094B5E1BAB424FEAA60606D00024013414
:1036E80055F8043B9847A642F9D870BDBCC60008F7
:1036F800BCC60008BCC60008C0C6000830B586466F
:103708008007CCB215D00EEB0205F44606E013F89C
:10371800011BA14207D0990706D09C466545634620
:103728006046F4D1002030BD013A72449E46A2EBB7
:103738000C02032A0CD8002AF4D07346724401E024
:103748009A42EFD0184613F8011BA142F8D130BDB8
:1037580004EB0425714605EB05458E4651F8043BFC
:103768006B40A3F1013020EA030313F0803FE4D15A
:10377800043A032AF1D88E46DDE700BF844641EAC1
:10378800000313F0030349D1403A23D30B680360C5
:103798004B6843608B688360CB68C3600B690361C7
:1037A8004B6943618B698361CB69C3610B6A0362AF
:1037B8004B6A43628B6A8362CB6AC3620B6B036397
:1037C8004B6B43638B6B8363CB6BC363403040317C
:1037D800403ADBD230320BD30B6803604B6843604E
:1037E8008B688360CB68C36010301031103AF3D215
:1037F8000C3205D351F8043B40F8043B043AF9D2A3
:10380800043208D0D2071CBF11F8013B00F8013B75
:1038180001D30B8803806046704700BF082A13D382
:103828008B07B1D010F00303AED0C3F10403D21A52
:10383800DB071CBF11F8013B00F8013BA4D331F8AA
:10384800023B20F8023B9FE7043AD9D3013A11F82A
:10385800013B00F8013BF9D20B7803704B784370B9
:103868008B7883706046704720F0030110F00300E6
:10387800C0F1000051F8043B00F1040C4FEACC0CF5
:103888006FF000021CBF22FA0CF213434FF0010C38
:103898004CEA0C2C4CEA0C4CA3EB0C0222EA030277
:1038A80012EACC1204BF51F8043B0430F4D0C2F140
:1038B800000102EA0102B2FA82F2C2F11F0200EB31
:1038C800D200704770B50B4E84B004461D46D6F83A
:1038D800E06021B1B047431C06D004B070BD0A4671
:1038E80001A9B047431CF8D100228A232A6023602B
:1038F80004B070BD0C00002070B50F4D0B460F4E84
:1039080084B014462D68D6F8E060014638B11A46EE
:1039180028462346B047431C08D004B070BD134660
:1039280001A902462846B047431CF6D100228A2343
:1039380022602B6004B070BD780100200C000020CC
:103948002DE9F04F036985B00C69A342C0F290805D
:10395800013C01F1140500F11408814655F82430A2
:103968004FEA840C58F8242005EB8407013308EB50
:10397800840B9A42B2FBF3F642D30020AA46C6460D
:10398800CDF80C8003468846CDE901C505465AF8AE
:10399800042BDEF8001090B257454FEA124C06FB94
:1039A80000508AB24FEA104580B206FB0C55A2EBD4
:1039B80000021A44ABB24FEA1545C3EB224392B258
:1039C80003EB114342EA03424FEA23434EF8042B28
:1039D800DDD24146DDF80C80DDE901C558F80C3030
:1039E80073B9ABF1040BD84504D307E0D84504F10B
:1039F800FF3403D25BF80439002BF7D0C9F8104024
:103A0800484601F0F3FF00282EDB00224146944689
:103A180055F8040B0B681FFA80FEAF429AB24FEAC2
:103A28001040A2EB0E026244C0EB224092B200EBBF
:103A3800134042EA00424FEA204C41F8042BE7D2F7
:103A480058F8242008EB84036AB9043B434504D89A
:103A580007E0984504F1FF3403D253F80429002AFB
:103A6800F7D0C9F810400136304605B0BDE8F08FF0
:103A7800002005B0BDE8F08F2DE9F04F9FB0044657
:103A88000091816B289D57EC106BCDE909328DEDC3
:103A9800040B41B1C26B012393404A608B6001F073
:103AA800D3FC0023A363B7F10009C0F2A880002368
:103AB8002B60734B33EA090300F0AC80002200232B
:103AC8009DED047B51EC170B8DED027B03F062FB3F
:103AD800824668B10123099A1360299B13B1694B87
:103AE800299A1360684B069306981FB0BDE8F08FBB
:103AF8009DED020B1CAA1DA9204602F0E1F8DDF895
:103B080070805FEA19550B9040F09A801D9D4544DE
:103B180005F23243202B40F3CC81C3F1400309FA6C
:103B280003F905F2124326FA03F349EA030003F006
:103B38004FF8013D0122A1F1F873149219460022B1
:103B4800524B02F007FF48A3D3E9002303F0BAF869
:103B580047A3D3E9002302F0FFFE06460F46284696
:103B680003F046F844A3D3E9002303F0ABF8024678
:103B78000B463046394602F0EFFE06460F4603F084
:103B880051FB00228146079000233046394603F056
:103B98000BFB002840F07481A8EB0508079D08F18D
:103BA800FF36162D089600F25881394B03EBC503F2
:103BB800DDE90201D3E9002303F0F6FA002840F01A
:103BC8007F81B8F1000F40F30E862E4412901195B4
:103BD80008960C9000231093009B092B60D8052BA6
:103BE80040F36C81043B00250093009B023B032BB0
:103BF80058D8DFE813F0870284027A026F010123A4
:103C080029F000492B601E4BCDF8149033EA0903C4
:103C18007FF454AFC9F3130942F20F73099A59EAB2
:103C28000609136017D1299B002B00F01287194B46
:103C380006930833299A069813601FB0BDE8F08FE1
:103C4800DDE90201144BA5F2FF35C1F31302CDF8EB
:103C580050A0134372E7299B002B40F037810F4B8C
:103C6800069341E7AFF3008061436F63A787D23FB4
:103C7800B3C8608B288AC63FFB799F501344D33F53
:103C88000000F07FC1C40008C0C400080000F83F6D
:103C980040C30008D8C400080000F03FE4C400088E
:103CA8000023009300212046E16301F0A7FB069062
:103CB800002800F06686069BA3631D9B002B03DB90
:103CC800079A0E2A40F3E4854FF0FF3200210D9247
:103CD8000A911392149A002A40F017821C9BC3F190
:103CE8003603089A109D1A4408920C9A90461A4472
:103CF8000C920121204601F0C5FC0646B8F1000FE0
:103D080000F07A85089B002B40F37685089A0C9979
:103D180042451346A8BF4346C91AA8EB0308D31A5D
:103D28000C910893109BC3B1002D00F0D685314645
:103D38002A46204601F088FD0B9F064620463A4653
:103D4800314601F0CDFC39460746204601F07CFBA0
:103D5800109B0B975D1B40F0848501231093012174
:103D6800204601F08FFC119B0746002B40F006838C
:103D7800009B012B40F35D83012308990B4413F04A
:103D88001F0300F05482C3F12002042A40F3F38495
:103D9800C3F11C030C9A19441A4498440C920891D4
:103DA8000C9B002B05DD1A460B99204601F0ACFD53
:103DB8000B90089B002B05DD39461A46204601F07A
:103DC800A3FD0746009B022B129BD4BF4FF0000AAD
:103DD8004FF0010A002B40F0E6820D9B002B00F308
:103DE8002F82BAF1000F00F02B820D9B002B40F0C0
:103DF800AE8239460522204601F030FB07460B9873
:103E0800394601F0F3FD002840F3A182079BDDF855
:103E180018B003F1010A31230BF8013B394620465B
:103E28000AF1010A01F010FB1EB13146204601F0EB
:103E38000BFB0B99204601F007FB00238BF80030A1
:103E4800099BC3F800A0299B002B3FF44DAE0698B0
:103E5800C3F800B01FB0BDE8F08F01231293089B90
:103E6800002B20DB00230C93079B002B16DA0C9AFF
:103E7800079BD21A5B42109300230C921193ABE676
:103E8800484602F0B5FE32463B4603F083F9002867
:103E98007FF482AE09F1FF3307937DE6089A119308
:103EA8001A44089296E6C8F101030C93002308937C
:103EB800DAE7C3F1200306FA03F038E6012594E6B1
:103EC800079B013B079300231293C8E7B74B069360
:103ED8000333AFE64FF0010A0A9B079A1344139382
:103EE8000133012B1E460D93B8BF0126172E40F350
:103EF800A585012204235B001146013203F1140059
:103F0800B042F8D9E163204601F078FA069000281B
:103F180000F03785069BA3630D9B0E2B00F22381CF
:103F2800002D00F02081079A002A40F3E581A0497E
:103F380002F00F03151101EBC303D3E90067D305A2
:103F480040F154829B4B05F00F054FF00309D3E96C
:103F58000823DDE9020102F0DFFFCDE90E0185B19A
:103F6800DFF85082E80740F1D3803046394609F13E
:103F78000109F8E8022302F0A5FE06466D100F4677
:103F8800F0D132463B46DDE90E0102F0C5FFCDE92E
:103F98000E01129B53B10022874BDDE90E673046B4
:103FA800394603F001F9002840F0EE83484602F054
:103FB8001FFEDDE90E2302F085FE804B002202F091
:103FC800CBFC0D9B0646A1F15077002B00F0B28088
:103FD800079B1A930D9B1593754B15991B9303EB30
:103FE800C103DDE90E8913ED027B49464046CDE960
:103FF80016678DED187B03F015F90746069E02F04B
:10400800F7FD303702460B4640464946751C02F01C
:10401800A1FC80468946FFB2DDE91823BAF1000FFA
:1040280000F028820020664902F076FFDDE91623B9
:1040380002F090FC377042464B4606460F4603F0A6
:10404800D1F8002840F04C844FF0000ADDF854B055
:104058000E942BE00AF1010ADA4580F2CE8130464F
:1040680039460022574B02F02DFE0022554B0646DA
:104078000F464046494602F025FE8946804603F031
:10408800D1F8044602F0B4FD02460B4630344046EF
:10409800494602F05FFC32463B4605F8014B804634
:1040A800894603F081F8002840F0198442464B46BF
:1040B8000020414902F04EFC32463B4603F074F8BA
:1040C8000028C7D0069A0E9C02E0954200F0FF83B4
:1040D800AB4615F8013D392BF7D001330692DBB218
:1040E8002B701A9B03F1010AA3E64FF0010A0A9B01
:1040F800002B40F33C810A9E13960D96F6E64FF08E
:10410800000AE9E64FF0000AF1E703F23343E8E575
:104118006D1008F1080825E7484602F069FDDDE959
:104128000E2302F0CFFD0022244B02F015FC0646B8
:10413800A1F150770022244BDDE90E0102F00AFCC0
:1041480032463B468046894603F04CF8002840F04A
:10415800598340464946324607F1004303F024F8A4
:10416800002840F0FA801D9B002B02DB079A0E2ADC
:104178002CDDBAF1000F40F048810C9B002B00F0B9
:10418800F382089B002B00F0EF820C9A08991346E3
:10419800109E8A42A8BF0B46D21ACB1A0C920893DB
:1041A800002E40F03D839046D9E500BFE4C40008E6
:1041B80040C3000830C400080000F03F00001C4065
:1041C8000000E03F0000244000001440A64B1B9371
:1041D8001B9B079A03EBC20393ED007B0A9B002B02
:1041E8008DED007B80F25F830D9B002B00F35B83DA
:1041F800002B40F0B28000229C4BDDE9000102F068
:1042080061FD02460B46DDE9020102F0D7FF0D9978
:10421800002840F0A3803123DDF818B020460BF8C1
:10422800013B01F011F9079B03F1020A01E61C2387
:104238000C9A98441A440C92089A1A440892AFE5CA
:10424800109B002B40F0DF81079B03F1010ADDF88A
:1042580018800125DDF834B0DDF82C9007E04946D8
:1042680000230A22204601F0F9F801358146394633
:104278004846FFF765FB5D4500F1300308F8013B50
:10428800EDDB0D9A0025CDF82C9002F1FF38002ABD
:10429800069AD8BF4FF00008013290440B990122CA
:1042A8002046009301F030FB39460B9001F09EFB4D
:1042B800002840F3FB82069A02E0904500F0018353
:1042C80018F8013CC34608F1FF38392BF5D0013303
:1042D80088F800303946204601F0B6F8002E3FF441
:1042E800A8AD002D3FF4A1ADB5423FF49EAD2946DF
:1042F800204601F0A9F898E500F06D82079B5A4A1C
:104308005D4205F00F0302EBC303DDE90201D3E9C7
:10431800002302F0D7FC2D11CDE90E0100F08A83AD
:10432800534E4FF00209E9070ED509F10109DDE9FD
:104338000E01F6E8022302F0C5FC6D10CDE90E016E
:104348003FF427AEE907F0D46D100836EBE70A9B77
:10435800DDF818B06FEA030A60E50021204601F095
:1043680073F80A9BDDF818B0C3F1000A61E5012370
:1043780000211393E1630D930A93C4E51A4601469D
:10438800204601F061FA009B0746012B40F3738237
:10439800002311933B6907EB8303186901F008F9BF
:1043A800C0F12003E9E439460B9801F01FFB00280F
:1043B800BFF613AD00230B990A222046079D01F092
:1043C8004DF8139B05F1FF390B90002BCCBF00254E
:1043D8000AF00105109B002B40F00781002D40F0EA
:1043E8001183139BDDF81CA00D9330E79DED027B34
:1043F8004FF002098DED0E7BB1E51D9B0E9C002B45
:1044080003DB079A0E2A7FF7E3AE009A012A7FF7AB
:1044180061AC0D9B109A5D1EAA42C0F20E82002B61
:10442800A2EB050580F2F682DDE90C32A3EB020867
:104438005FE4049B002B7FF49FAC059BC3F313033D
:10444800002B7FF499AC059B23F000431B0D1B0543
:10445800002B3FF491AC0C9B01330C93089B013368
:1044680008930123119388E440C300080000144016
:1044780030C40008DDE9160102F024FC069B1F7019
:10448800159B012BCDE90E0100F0C282069BAA46BE
:10449800159A03EB020B0022B94B4046494602F03D
:1044A80011FC8946804602F0BDFE064602F0A0FBDC
:1044B80002460B4630364046494602F04BFA0AF8A7
:1044C800016BD34580468946E5D16E1E159B1E4477
:1044D8000022AC4BDDE90EAB5046594602F03CFADF
:1044E80042464B4602F060FE002840F0FF815246EB
:1044F8005B460020A34902F02DFA42464B4602F0E3
:1045080071FE00286AD11D9B002BFFF636AE079B73
:104518000E2B3FF732AE1B9B079A03EBC20393EDBA
:10452800007B8DED007BDDE9009ADDE902674A46F4
:1045380053463046394602F0EFFC02F073FE8046DF
:1045480002F056FB4A46534602F0BCFB02460B46B5
:104558003046394602F0FEF908F13003069A137026
:104568000D9B012B00F0DE81C5F1010902944FF08B
:10457800000A4FF0000B4C46DDF834901CE0DDE9F2
:1045880000233046394602F0C7FC02F04BFE804655
:1045980002F02EFBDDE9002302F094FB0B460246F5
:1045A8003946304602F0D6F908F1300305F8013BE8
:1045B8002B194B4500F0B5810022714B02F082FBAC
:1045C80052465B4606460F4602F0E4FD0028D6D068
:1045D800079BAB46029C03F1010A2AE416F8013C4A
:1045E800B346013E302BF9D07BE5314600230A2241
:1045F800204600F033FF139B0646CDF81C900D9320
:10460800002D7FF4F2ABB8F1000F05DD31464246CC
:10461800204601F079F90646119B002B40F06A818B
:10462800B146069D0D9A6B1E02970B9F1A44049B78
:1046380003F001030A920C9302993846FFF780F9B8
:1046480031468246384601F0D1F9029980464A46F9
:1046580020460AF1300B01F0EBF9C3680146B3BB01
:104668000890384601F0C2F908990890204600F0F1
:10467800EBFE009B089A13435FD10C9B002B00F0C4
:10468800B781B8F1000FC0F2AF810A9BA846AB42D0
:1046980008F801BB00F07C81394600230A22204635
:1046A80000F0DCFE4E45074631464FF000034FF060
:1046B8000A0220463BD000F0D1FE494606460023B8
:1046C8000A22204600F0CAFE45468146B4E7204645
:1046D8000B97CDF820B0029F00F0B6FEB8F1000F9E
:1046E800089B08DB049A009902F0010248EA0108D5
:1046F80052EA080232D10B9901222046009301F0B8
:1047080003F939460B9001F071F90028009B40F33A
:104718008B81392B00F045810AF13103AB460BF848
:10472800013B3546079B4E4603F1010AD2E500F0EE
:1047380095FE4546064681467EE7B8F1000FC0F271
:104748003B81009B48EA03080C9B53EA080800F0E9
:104758003381002A99DD0B975B46029F392B00F0C5
:104768002081AB460133DAE7109E002E58D1DDF8E0
:104778003080FFF7F4BA3FF413ABC3F13C0357E5BD
:10478800000024400000E03F0D9B002B3FF4C4AC28
:10479800139D002D7FF7E7AC079B30463946002272
:1047A800013B1A93AD4B02F08DFA02460F4609F110
:1047B80001001646CDE90E6702F01AFA32463B466A
:1047C80002F080FA0022A64B02F0C6F815950646BC
:1047D800A1F1507700E49DED027B4FF002098DEDC9
:1047E8000E7BFFF7D6BBC8F1010312900C93079B11
:1047F80008931193FFF7EEB9109B002B3FF4ADAA75
:10480800FFF792BA3123DDF818B0002120460BF8E3
:10481800013B00F019FE079B03F1020AFFF709BBF1
:10482800109A20460B9901F00FF80023DDF830802C
:104838001E460B901093FFF792BA109B0121119A14
:104848002046EB1A0D9F1A44089B3B44119208938B
:1048580000F018FF0C9B0646002B40F0838098461A
:104868000C972A460B99204600F0EEFF01230B9087
:104878001093FFF774BA049B002B7FF489ADDDE930
:104888000412C2F31303002B00F09D80119181E5FF
:10489800079A744B03EBC2034FF0FF3293ED007B92
:1048A8000D928DED007B069B5D1C3CE603D1009BC1
:1048B800DB073FF500ADC34618F8013D302BFAD0B1
:1048C80008E53123069A0AF1010A137002E51A9BDA
:1048D800069201331A93312302E4109DC1E70E9C1E
:1048E8001A9BAB4603F1010AFFF7A3BA3546069AAD
:1048F800FFF7EEBB7168204600F080FD05460028F2
:1049080000F0A080336906F10C010C3002339A00E4
:10491800FEF734FF29460122204600F0F5FF8146C4
:104928007FE6029C02460B4602F016F8079B0646F5
:104938000F4603F1010ADDE9002302F053FC48B9F0
:1049480030463946DDE9002302F024FC38B118F07E
:10495800010F04D0079B069A1A93FFF7B9BBAB4621
:10496800FFF767BA0C99089A8A421346A8BF0B4604
:10497800D21AA1EB030808920D9A8A18D31A0C933D
:104988006FE7394B002240F2AF11384801F002FEC0
:10499800079A35460B975B46029F02F1010A4E467D
:1049A8007CE4079BA846069A354603F1010A392399
:1049B8004E4608F8013B83E4002A0B975B46029FAA
:1049C8003FF799AEAAE6059B23F000431B0D1B0594
:1049D800002B3FF4DEAC0C9B01330C93089B013396
:1049E800089301231193D5E40B975B46029F95E644
:1049F8005B460B97029F392BD3D0B8F1000F3FF7D6
:104A08008BAE8BE6139BCDF81C900D93FFF7EDB999
:104A18002E465DE5089B0D9A134408930C9B984617
:104A280013440C93FFF765B97FF478AEDA077FF586
:104A380075AE6EE64FF00209FFF7ABBA0021E163ED
:104A4800FFF761BA0246084B40F2EF21074801F030
:104A5800A1FD074B0693FFF747B800BF00002440AD
:104A680000001C4040C30008E8C40008FCC400085B
:104A7800D8C400082DE9F8430646DFF8AC800820C2
:104A8800894601F079FD0546304600F0B3FCD8F8B8
:104A980008305F6827F00307A7F11104A4EB0904A5
:104AA8002C44B4FBF5F4013C05FB04F4A54208DCF6
:104AB8000021304601F038FDD8F808303B449842D0
:104AC80005D0304600F098FC0020BDE8F88361422C
:104AD800304601F029FD01300FD03F1B104AD8F8AD
:104AE8000830304647F001075F6013681B1B1360EE
:104AF80000F082FC0120BDE8F8830021304601F077
:104B080013FDD8F80820831A0F2BDADD43F00103D0
:104B180003495360034B1B68C01A0860D1E700BF04
:104B28001C080020A8060020A002002000295AD056
:104B3800F8B50C46074600F05DFC734D54F804CCFC
:104B4800A4F10802A8682CF001030CF0010ED1189A
:104B58004E68884226F003067CD088194E6040686B
:104B680000F00100BEF1000F2ED154F8084C05F1F9
:104B7800080C121B23449468644560D0D2F80CE0FA
:104B8800C4F80CE0CEF8084000287DD043F00100BE
:104B980050600B60B3F5007F2ED25809D908012365
:104BA800834068680131034355F831006B6005EBB9
:104BB800C103083BC2E9020345F83120C260384608
:104BC800BDE8F84000F018BC70B9334405F1080C92
:104BD800886843F0010460456ED0C968C160886088
:104BE8005460D350D6E770474CF00101B3F5007F0D
:104BF80044F8041CD350D0D3B3F5206F4FEA5321A7
:104C080044D2990901F1390001F13804C10068184A
:104C180069580838884203D155E08968884204D029
:104C28004C6824F003049C42F7D8C868C2E9021013
:104C380082603846CA60BDE8F84000F0DDBB80BB42
:104C48001E44D1E90213CB60996046F0010353601A
:104C58009651B4E71E44BEF1000F07D154F8083C42
:104C6800D21A1E44D2E90213CB60996046F00103C0
:104C78005360264BAA601B68B342A0D8244B384621
:104C88001968FFF7F7FE9AE73344A1E714290DD90D
:104C980054291FD8190B01F16F0001F16E04C100EE
:104CA800B5E743F0010050600B6088E701F15C0054
:104CB80001F15B04C100AAE7C5E90422C2E902CCFC
:104CC8005460D3507BE7A4100123A3406C682343AE
:104CD8006B60ABE7B1F5AA7F06D8D90B01F1780074
:104CE80001F17704C10092E740F25450814206D89E
:104CF800990C01F17D0001F17C04C10087E74FF4B4
:104D08007E717E2483E700BFA0020020AC0600204D
:104D18001808002001F10B03162B2DE9F04F074668
:104D280083B023D8102900F2AF8000F063FB102570
:104D380018230220C64E33445C68A3F1080294424B
:104D480000F05F816368384623F00303D4E9021258
:104D58002344CA6091605A68083442F001025A60DC
:104D680000F04AFB204603B0BDE8F08F002B23F08B
:104D78000705C0F28980A94200F2868000F03AFB5C
:104D8800B5F5FC7FC0F07A826B0A00F08480042BB2
:104D980000F26481AB0903F1390003F1380EC30056
:104DA800AB4E3344A3F1080C5C68A44507D10DE071
:104DB800002AE16880F21F818C450C4606D06368A2
:104DC80023F003035A1B0F2AF2DD7046DFF88482B2
:104DD8003469444500F0FB80636823F0030CACEBB6
:104DE80005030F2B00F37681002BC6E9048880F2B7
:104DF8006581BCF5007FD6F804E080F008814FEAB1
:104E0800DC0301224FEA5C1C013302FA0CF256F86B
:104E180033104EEA020E06EBC302083AC6F804E065
:104E2800C4E9021246F83340CC6083104FF0010CFD
:104E38000CFA03FCF44534D81CEA0E0F07D120F015
:104E480003004FEA4C0C04301CEA0E0FF9D006EBB5
:104E5800C00A8146D646DEF80C300BE05A681C467C
:104E6800DB6822F00302511B0F2900F3038100299C
:104E780080F217819E45F1D109F101090EF1080E62
:104E880019F0030FE7D15AE10C233B6000242046B8
:104E980003B0BDE8F08F4FF4007340204FF03F0E91
:104EA8007EE7B468636823F00309A945A9EB050305
:104EB80002D30F2B00F38E80DFF89CB104EB0903BB
:104EC8000820DBF800200093103202EB050801F0FF
:104ED80053FBD6F808140246013105D008F1FF3813
:104EE8004142804401EA080841463846009201F0F0
:104EF8001BFBB0F1FF3F8246009A00F0068104EBED
:104F08000903834200F2FF80DBF8041002F1FF3C42
:104F180041440846CBF8041000F05F81D6F8081425
:104F2800013100F0668104EB0903AAEB0301014497
:104F3800CBF804101AF00703009300F02381C3F1A3
:104F4800080138468A440A44D04408EA0C01521A37
:104F580002EA0C01019101F0E7FA421C00F06581B8
:104F6800A0EB0A00019900EB0108DBF8042048F0E7
:104F78000100B442C6F808A01144CAF80400CBF8EE
:104F8800041016D0B9F10F0F40F236816268A9F10A
:104F98000C00052320F0070002F0010202430F284D
:104FA800626004EB0002C2E9013300F24681DAF8DC
:104FB8000400DBF82C2054468A42DBF8302038BF46
:104FC800CBF82C108A4238BFCBF830109FE0D6F8C7
:104FD80004E02AE7621945F0010543F001030834AB
:104FE80044F8045C3846B260536000F005FA204685
:104FF80003B0BDE8F08FA26823443846D1608A60C8
:10500800A9E6DC68A3427FF49DAE0230DEE6BCF57B
:10501800206F4FEA5C226FD3142A00F2C38002F19A
:105028005C035B32DB00F118F3580839994203D16D
:105038009EE09B68994204D05A6822F003026245B8
:10504800F7D8D968C4E902318C60DC60EDE600BFAE
:10505800A0020020A802002018080020142B63D901
:10506800542B00F2A8802B0B03F16F0003F16E0E96
:10507800C30095E6D4F808C03846671945F001051D
:105088006560CCF80C30C3F808C041F00103C6E9EC
:105098000477C7E902887B60A150083400F0ACF9B6
:1050A800F5E622443846516841F00101516054F850
:1050B800082FD3609A6000F09FF9E8E6A4443846C8
:1050C8000834DCF8043043F00103CCF8043000F075
:1050D80093F9DCE6621943F0010145F00105384611
:1050E8006560C6E90422C2E90288516044F80C30C0
:1050F800083400F081F9CAE64FEA9C1202F139033C
:105108003832DB008FE7B4425FD0B468606820F0C3
:105118000308A845A8EB050302D30F2B3FF75AAFA6
:10512800384600F069F9B1E603F15C0003F15B0E63
:10513800C30035E65AF80839534540F09D8010F011
:10514800030F00F1FF30F5D1736823EA0C03736095
:105158004FEA4C0C0CF1FF329A4204D3A1E64FEA15
:105168004C0C09F104091CEA030FF8D048466EE616
:1051780092104FF0010C0CFA02F24EEA020EC6F839
:1051880004E05FE70AEB0801384601EA0C01521A0D
:1051980002EA0C01019101F0C7F9431C7FF4E0AE6B
:1051A8000099E2E6542A2BD84FEA1C3202F16F0329
:1051B8006E32DB0037E7B3F5AA7F2BD8EB0B03F190
:1051C800780003F1770EC300EAE5DBF8040002F18A
:1051D800FF3C4044CBF80400A0E61AEA0C0F7FF429
:1051E8009DAEC844D6F808A048F00100CAF80400EB
:1051F800DFE6C6F808A49DE60123CAF804308FE765
:10520800B2F5AA7F23D84FEADC3202F1780377326D
:10521800DB0008E740F25452934223D8AB0C03F169
:105228007D0003F17C0EC300BAE5009B0021A3F1C9
:1052380008029044A8EB0A0897E604F108013846EA
:10524800FFF774FCDBF80410D6F808A0AFE640F2CC
:1052580054539A420CD84FEA9C4202F17D037C32A7
:10526800DB00E0E64FF47E737F204FF07E0E97E57B
:105278004FF47E737E22D6E6736869E7E80805F185
:10528800080357E510B4034CD4F8E440A4465DF88D
:10529800044B60470C00002082B049B15AB16BB191
:1052A80013780B601278101E18BF012002B07047E7
:1052B80001A9002AF3D1104602B070476FF001002F
:1052C800F4E700BFB1F90C3070B50C46990796B0F9
:1052D80007D504F1430301222360C4E9043216B060
:1052E80070BDB4F90E10054600292BDB6A4601F0A3
:1052F800C7F8002824DB4FF480612846019EFFF799
:1053080009FDB4F90C30A0B306F4704643F08003ED
:105318004FF480622060B6F5005F2061A38162616E
:1053280035D1B4F90E10284601F0C0F8B4F90C30A4
:1053380068B323F003034FF4006243F0010314E061
:10534800B4F90C3013F0800F28460CBF4FF4806579
:1053580040252946FFF7DEFCB4F90C3048B143F08C
:10536800800300222060C4E904051343A38116B01A
:1053780070BD9A05B3D423F0030304F1430201215D
:1053880043F002032260C4E90421A381A7E74FF494
:105398000062EAE770B50C46B1F90E1096B01546F2
:1053A80000291E4614DB6A4601F06AF800280FDB64
:1053B80001994FF480634FF4006001F47041A1F546
:1053C8000051B1FA81F1490931602B6016B070BD06
:1053D800A18911F0800106D00021402308463160E0
:1053E8002B6016B070BD4FF48063084631602B60A7
:1053F80016B070BD704700BF704700BF38B5436C2A
:1054080005460C464BB153F8240080B1026843F8B6
:1054180024200023C0E9033338BD2122042101F0F0
:10542800DDF8034668640028EDD1002038BD01216D
:10543800284601FA04F56A1D920001F0CFF8002809
:10544800F3D0C0E90145E4E731B1436C4A6853F849
:105458002200086043F82210704700BF2DE9F04190
:1054680007460E461C460D6901F1140E0020DEF8B1
:10547800001001308BB285424FEA114102FB034311
:105488004FEA134C9BB202FB01CC03EB0C434FEAEF
:105498001C444EF8043BEADC3CB1B368AB4207DD80
:1054A80006EB850301355C6135613046BDE8F08166
:1054B800716838460131FFF7A1FF8046A8B132690B
:1054C80006F10C010C3002329200FEF757F97B6CA2
:1054D800726853F82210316043F82260464606EBA2
:1054E800850301355C613561DFE70246024BBA216D
:1054F800024801F04FF800BFE8C40008A0C5000842
:105508002DE9F8431E4617460833264A0C46092E4D
:1055180082FB03124FEAE3730546C3EB620338DDEF
:105528004FF0010C00214FEA4C0C01316345FADCC5
:105538002846FFF763FF014668B3089B092F4361BC
:105548004FF00103036112DC0A340927BE420BDD68
:10555800F61B264414F8013B0A222846303BFFF785
:105568007DFFB4420146F5D10846BDE8F88304F151
:1055780009093C44C84618F8013B0A222846303B32
:10558800FFF76CFFA0450146F5D1B944A9F108041D
:10559800DCE70021CCE70246034BD321034800F0A7
:1055A800F9FF00BF398EE338E8C40008A0C5000839
:1055B800B0F5803F034610D203041020B3F1807F7A
:1055C80001D208301B02B3F1805F08D3B3F1804FDA
:1055D80010D29A0013D4033070470020EEE71A0166
:1055E8000430B2F1804F06D29B0108D45B00F2D49C
:1055F800202070471A46002AFBDB01307047023032
:10560800704700BF03680246590707D0D8071DD462
:1056180099072AD55B0801201360704799B279B9B8
:105628001B0CD9B2A1B11020190701D104301B09F4
:10563800990712D0D90701D401305B08136070476D
:10564800D9B241B1180718D10420F0E700207047FB
:1056580018201B0AE8E70820FBE713F0040F4FEABD
:10566800930106D002300B46E8E79B08022013603E
:105678007047DB0804D120207047DB080320DDE7F2
:105688000330DBE738B5436C04460D464BB1586828
:10569800B0B102685A60002201234561C0E90323C2
:1056A80038BD2122042100F099FF034660640028D8
:1056B800EDD1094B002240F24511084800F06AFF7D
:1056C8001C220121204600F089FF0028F1D0012288
:1056D8000223C0E90123DEE7E8C40008A0C50008EA
:1056E8002DE9F04FD1F8108085B015690E46924625
:1056F800A84505DB2A46534645468A4690461E4637
:1057080005EB0804DAE90113A342B8BF0131FFF73A
:1057180075FE002800F08C8000F1140707EB840E5A
:10572800774505D23B46002243F8042B9E45FBD81B
:1057380014360AF1140906EB880809EB8505464575
:1057480069D2A5EB0A030AF1150ACDF808E0AE46BE
:10575800153B039423F00303AA4594BF9B464FF0DF
:10576800000B824605E0090C2DD1B04507F104076E
:105778004ED956F8041B8DB2002DF4D0CC463C46C9
:10578800002301965CF8040B216886B2E6458AB2CC
:105798004FEA104005FB06224FEA11411A4405FB67
:1057A800001101EB124192B24FEA114342EA014261
:1057B80044F8042BE6D8019E07EB0B02536056F819
:1057C800041C090CD1D03B68002248463D461C46C3
:1057D800944602889BB201FB02C202EB144243EAE0
:1057E800024345F8043B50F8043B2C684FEA134C3D
:1057F8008645A3B201FB0C3303EB12434FEA134C6B
:10580800E7D807EB0B02B04507F104075360B0D89F
:105818005046DDE902E4002C02DC05E0013C03D03F
:105828005EF8043D002BF9D0046105B0BDE8F08FA7
:105838000246034B4FF4B171024800F0ABFE00BFC3
:10584800E8C40008A0C5000812F003032DE9F041E0
:105858001446074632D10E46A4102CD03D6C002DBC
:1058680035D004F001034FF0000864103BB92868F4
:10587800B8B1054604F001036410002BF7D02A469E
:1058880031463846FFF72CFF36B17B6C716853F808
:105898002120326043F8216074B106462868002848
:1058A800E7D12A4629463846FFF71AFF28600546F9
:1058B800C0F80080DEE73046BDE8F081013B0F4AC2
:1058C80052F823200023FFF7C9FD0646C4E701214B
:1058D8003846FFF793FD054640B1012340F2712297
:1058E800C0E90432002338640360BAE70246044B77
:1058F80040F24511034800F04DFE00BF30C30008D8
:10590800E8C40008A0C500082DE9F0470C469046F9
:1059180006464FEA62192769A36807EB62174968C8
:105928007D1C9D4203DD5B0001319D42FBDC30465E
:10593800FFF764FD00284DD0B9F1000F00F1140CF9
:105948000BDD09F105026346002100EB820243F8F2
:10595800041B9342FBD10CEB890C04F1140321695D
:1059680018F01F0803EB81012BD0C8F12009E64687
:105978004FF0000A1A6802FA08F242EA0A024EF8E0
:10598800042B53F8042B994222FA09FAF2D80B1B7C
:1059980004F11502153B23F00303914238BF00239D
:1059A80004334CF803A0BAF1000F00D13D46736CE4
:1059B8006268056153F82210216043F82240BDE86F
:1059C800F087ACF1040C53F8042B99424CF8042FDF
:1059D800F9D8EBE70246034B4FF4EF71024800F0A9
:1059E800D9FD00BFE8C40008A0C5000884460B69BB
:1059F8000069C01A16D10CF1140C14310CEB830297
:105A080001EB830310B401E0944508D252F8044D29
:105A180053F8041D8C42F7D005D24FF0FF305DF8E3
:105A2800044B7047704701205DF8044B704700BF76
:105A38002DE9F04F136983B00E6989461546F61AA9
:105A4800002E14D101F1140702F1140101EB8301B6
:105A580007EB830301E09F427ED253F8044D51F8CF
:105A6800042D9442F7D080F08280012603E0FCDB0D
:105A780000260D4691466968FFF7C0FC002800F033
:105A880083802F6905F1140B05F11002D9F8103045
:105A980009F1140500F114010BEB870E944605EB90
:105AA800830A88460023C660CDF804B055F8046B15
:105AB8005CF8042F1FFA86FBAA4594B2A4EB0B04EA
:105AC8001C444FEA1643C3EB124303EB2443A4B22E
